:020000040800F2
:100000005894002055020008ED680008716100084E
:10001000E968000879210008017B00080000000061
:10002000000000000000000000000000316B00082C
:10003000452300080000000061690008816B00088A
:100040006F0200086F0200086F0200086F020008CC
:100050006F0200086F0200086F0200086F020008BC
:100060006F0200086F0200086F0200086F020008AC
:100070006F0200086F0200086F0200087D2100086F
:100080006F0200086F0200083D1F00086F020008A1
:100090006F0200086F0200086F0200086F0200087C
:1000A0006F0200086F020008716C00086F02000800
:1000B0008D6C00086F0200086F0200086F020008D4
:1000C0006F0200086F0200086F0200086F0200084C
:1000D0006F020008A17A00086F0200086F02000892
:1000E0006F0200086F0200086F0200086F0200082C
:1000F0006F0200086F0200086F0200086F0200081C
:100100006F0200086F0200086F0200086F0200080B
:100110006F0200086F0200086F0200086F020008FB
:100120006F0200086F0200088D2100086F020008AE
:100130006F02000800000000000000006F020008CD
:100140006F0200086F0200086F0200086F020008CB
:100150006F0200086F0200089D2100086F0200086E
:100160006F0200086F0200086F0200086F020008AB
:100170006F0200086F02000800000000000000008D
:100180006F0200086F02000800F002F800F053F858
:100190000AA090E8000C82448344AAF10107DA45E2
:1001A00001D100F048F8AFF2090EBAE80F0013F0E1
:1001B000010F18BFFB1A43F001031847C8C2000023
:1001C000E8C20000103A24BF78C878C1FAD85207B4
:1001D00024BF30C830C144BF04680C6070470000C1
:1001E0000023002400250026103A28BF78C1FBD840
:1001F000520728BF30C148BF0B6070471FB50CF0D5
:100200002FF89DE8030001F0CFFA01F0B1FA0400E5
:10021000002000210BF01CFE401C6060002000212B
:100220000BF000FEE06000F0B1F91FBD10B500203A
:1002300001F047FA10BD01F069FA1146FFF7DEFF41
:1002400008F0FEF901F092FB03B4FFF7EFFF03BCE7
:1002500001F024FE0948804709480047FEE7FEE711
:10026000FEE7FEE7FEE7FEE7FEE7FEE7FEE7FEE766
:1002700004480549054A064B704700005D6C0008BC
:100280008901000858540020589400205864002028
:100290005864002053EA020C00F069802DE9F04B0D
:1002A0004FF00006002B1FBFB3FA83F503FA05F4E5
:1002B00024FA05F65E4012BF1643B2FA82F502FA3E
:1002C00005F4C5F120051EBF22FA05FC44EA0C0422
:1002D000203556EA044C4FEA144418BF641C4FF012
:1002E00000084FF00009904271EB030C39D300294C
:1002F00019BFB1FA81F701FA07F6B0FA80F700FAF0
:1003000007F6C7F120071EBF20FA07FC46EA0C06D5
:100310002037B6FBF4FCA7EB0507103F07F01F0BD7
:10032000CBF120062CFA06F60CFA0BFB44BFB346C1
:100330000026202FA4BF5E464FF0000B5BEA060CA0
:1003400008BF4FF0010B19EB0B0948EB0608ABFB9C
:10035000027C06FB02CC0BFB03CCC01B71EB0C0137
:10036000C1E70B46024641464846BDE8F08B13B54F
:10037000084318BF4FF0FF300146AFF30080BDE8DF
:100380001C4070470FB400B58DB010A909900091C2
:100390000B904FF0FF300A9000200C9006487844F4
:1003A0000690064878446A4607900F9909A800F01D
:1003B000D1FA0DB05DF814FBD3050000EB05000089
:1003C0000B460146184600F05BBC10B5431C02E02A
:1003D00010F8011B71B18107FAD14FF0013202C848
:1003E0008C1A8C4314EAC211F9D0C01A0A0603D041
:1003F000C01E10BDC01A10BD0A0401D0801E10BD61
:100400000902FCD0401E10BD40EA010370B59B07F5
:100410002ED14FF00136042A2AD308C810C99D1BDB
:100420009D43121F15EAC61517D0D8B2E1B2401A83
:1004300050EA056110D198B2A1B2401A50EA0541C4
:100440000AD123F07F4024F07F41401A50EA052171
:1004500002D1180EA0EB146070BDA342DBD018BA15
:1004600021BA884201D9012070BD4FF0FF3070BD24
:100470000AB9002070BD10F8013B11F8014B63B1BF
:10048000A3420AD1521E08D010F8013B11F8014BCB
:100490001BB1A34201D1521EEDD1181B70BD032A1E
:1004A00040F2308010F0030C00F0158011F8013B91
:1004B000BCF1020F624498BF11F801CB00F8013B78
:1004C00038BF11F8013BA2F1040298BF00F801CB3C
:1004D00038BF00F8013B11F0030300F0E883083A4D
:1004E000C0F0088051F8043B083A51F804CBA0E86A
:1004F0000810F5E7121D5CBF51F8043B40F8043BBF
:10050000AFF30080D20724BF11F8013B11F801CBF3
:1005100048BF11F8012B24BF00F8013B00F801CBC4
:1005200048BF00F8012B704702F0FF0343EA0322A3
:1005300042EA024200F002B84FF0000200B5134652
:1005400094469646203922BFA0E80C50A0E80C50F3
:10055000B1F12001BFF4F7AF090728BFA0E80C50A4
:1005600048BF0CC05DF804EB890028BF40F8042B9D
:1005700008BF704748BF20F8022B11F0804F18BF0A
:1005800000F8012B704770477047704770B5064CF4
:100590007C44064D7D4404E02046016808448047C1
:1005A000241DAC42F8D170BD4CC0000054C0000006
:1005B00010B500F0B3FB006810BD10B5044600F0A4
:1005C000ADFB046010BD2DE9FF4F1C4691464FF076
:1005D000FF3581B000218A468846D4E90167A169C8
:1005E00002986D1C8847216A834688470028F6D107
:1005F000BBF1FF3F0CD0002F26F4C0661ADD700659
:1006000015D5BBF12B0F0AD0BBF12D0F0FD104E094
:100610004FF0FF3005B0BDE8F08F46F48066A16969
:1006200002986D1C88477F1E8346002F02DDBBF1B8
:10063000300F03D0B9F1000F2AD025E0A1696D1C5D
:1006400002987F1E46F400768847002F834605DD1A
:10065000BBF1780F06D0BBF1580F03D0B9F1000FF2
:1006600010D011E0B9F1000F02D0B9F1100F0BD189
:10067000A1696D1C02987F1E26F400768847834688
:10068000102000E0082081464FEAE970009017E052
:100690000A20F8E74346AAFB0928DDF800C07F1EC0
:1006A00003FB098046F4007605F101050AFB0C0105
:1006B00012EB0B0A029841EBEB78A169884783465D
:1006C000002F06DD4946584600F064FB5FEA000B48
:1006D000E0D5E16902988847B00502D46FF00100C7
:1006E00098E7F00718D1700610D55146700505D56A
:1006F0000023D1EB030163EB080200E042462068CF
:10070000031D23600068C0E9001205E02068011D98
:1007100021600068C0E900A828467BE72DE9FF5F5B
:100720001D464FF0FF3B91464FF000085F46D5E96C
:100730000146A96901987F1C8847296A8246884733
:100740000028F6D1BAF1FF3F0CD0002E24F4C0648B
:1007500019DD600614D5BAF12B0F09D0BAF12D0FAF
:100760000ED103E0584604B0BDE8F09F44F4806425
:10077000A96901987F1C8847761E8246002E02DDFB
:10078000BAF1300F03D0B9F1000F26D032E0A969D9
:10079000761E01987F1C44F400748847002E824620
:1007A00005DDBAF1780F06D0BAF1580F03D0B9F1D0
:1007B000000F10D01EE0B9F1000F02D0B9F1100FF8
:1007C00018D1A969761E01987F1C24F4007488470B
:1007D0008246102002E0082000E00A20814609E05D
:1007E000A96908FB0908761E01987F1C44F400746F
:1007F00088478246002E05DD4946504600F0CAFA79
:100800000028EDDAE96901988847A00502D46FF065
:100810000100A8E7E00725D1600613D5600502D5E1
:10082000C8F1000000E0404629680A1D2A600968F6
:10083000220501D5087015E0220701D5088011E0D6
:1008400008600FE02868011D29600068210502D5B5
:1008500080F8008006E0210702D5A0F8008001E0C2
:10086000C0F8008038467EE72DE9FF5F4FF00008B2
:100870009946144646469169D2E901A7DDF838B099
:1008800001988847054659EA0B0005D009E0A1699F
:100890000198761C88470546216A28468847002823
:1008A000F5D1681C03D05FEACA7005D015E04FF09F
:1008B000FF3004B0BDE8F09F2068011D2160D0F832
:1008C00000800AE05FEACA7001D108F8015BA16903
:1008D000761C01987F1E88470546002F1ADD681C8C
:1008E00018D0B9F1000F0DD0E81705EBD060421118
:1008F00020F01F0059F822102A1A012090400142CE
:10090000E0D107E0BBF1000FDCD12846216A88471F
:100910000028D7D0E16901988847BBF1000F07D1C3
:10092000002E05DD5FEACA7002D1002188F80010B0
:10093000A068B84203DDBBF1000F03D017B16FF020
:100940000100B6E73046B4E702681144137801604D
:1009500018467047D160054979445161044979448A
:10096000116200211161114600F022BAEDFFFFFF74
:1009700021040000426842B1016811F8013B23B133
:10098000521EC0E90012184670470121C160881E3E
:10099000704742685AB1C368016843B983688B42A3
:1009A00005D0491E521CC0E90012002070474FF0CC
:1009B000FF3070472DE9FF4F4FF000089A4614466C
:1009C000C146464683B0D2E901B7CDF80080CDF8E4
:1009D0000480916904988847109905465AEA0100F5
:1009E00005D009E0A1690498761C88470546216A6C
:1009F000284688470028F5D1681C03D05FEACB70F1
:100A000005D02AE04FF0FF3007B0BDE8F08F206836
:100A1000011D2160D0F800801FE002A86A46E9B2FB
:100A200000F00BFE411C07D0801C09D04FF00009DC
:100A30005FEACB7007D00AE0E169049888473EE09E
:100A40004FF0010904E0BDF8081028F8021B7F1ED2
:100A5000A1690498761C88470546002F1ADD681C9A
:100A600018D0BAF1000F0DD0E81705EBD060421195
:100A700020F01F005AF822102A1A0120904001424B
:100A8000CBD107E010980028C7D12846216A8847B3
:100A90000028C2D0E16904988847B9F1000F0ED14F
:100AA000109830B9002E04DD5FEACB7001D1A8F8B0
:100AB0000000A068B84202DD109818B117B16FF0BD
:100AC0000100A1E730469FE72DE9FF4F4FF00008F6
:100AD0009B461446454683B0D2E90196CDF8008086
:100AE000CDF804809169DDF848A00498884707464E
:100AF0005BEA0A0005D009E0A16904986D1C8847EB
:100B00000746216A384688470028F5D1781C03D06B
:100B10005FEAC97005D01BE04FF0FF3007B0BDE8B9
:100B2000F08F2068011D2160D0F8008010E05FEA9E
:100B3000C97007D16A464046B9B200F09EFD411C1B
:100B400031D08044A1696D1C0498761E8847074601
:100B5000002E14DD781C12D0BBF1000007D03B46FC
:100B6000DDE9101200F05AFD0028E0D107E0BAF1EB
:100B7000000FDCD13846216A88470028D7D0E169C8
:100B800004988847BAF1000F06D1002D04DD5FEA12
:100B9000C97001D188F80000A068B04203DDBAF145
:100BA000000F03D016B16FF00100B7E72846B5E794
:100BB0002DE9FF5F9B46144600273D469169D2E927
:100BC0000196DDF840A00198884780465BEA0A005C
:100BD00005D009E0A16901986D1C88478046216A0B
:100BE000404688470028F5D1B8F1FF3F03D05FEABF
:100BF000C97005D014E04FF0FF3004B0BDE8F09F9D
:100C00002068011D216007680AE05FEAC97001D110
:100C100027F8028BA1696D1C0198761E88478046D3
:100C2000002E15DDB8F1FF3F12D0BBF1000007D058
:100C30004346DDE90E1200F0F1FC0028E5D107E0A3
:100C4000BAF1000FE1D14046216A88470028DCD084
:100C5000E16901988847BAF1000F05D1002D03DD45
:100C60005FEAC97000D13880A068B04203DDBAF1F4
:100C7000000F03D016B16FF00100BEE72846BCE7B5
:100C80002DE9F041074615460E46102000F04AF8BF
:100C900004000AD06760C4E9026500F03BF801680F
:100CA000216004600020BDE8F0810120FBE710B561
:100CB000203AC0F00B80B1E81850A0E81850B1E815
:100CC0001850A0E81850203ABFF4F5AF5FEA027C54
:100CD00024BFB1E81850A0E8185044BF18C918C084
:100CE000BDE810405FEA827C24BF51F8043B40F825
:100CF000043B08BF7047D20728BF31F8023B48BF0A
:100D000011F8012B28BF20F8023B48BF00F8012B47
:100D1000704700000048704760000020004870479E
:100D20002800002070B5064600F01EFD056806F19B
:100D30000B0020F00704B4429CBF002070BD2B467E
:100D40006A68BAB11068A04210D304F10801884261
:100D50003CBF5068586007D3516810194160116852
:100D6000091B016058601460101D70BD1346526865
:100D7000002AE7D12146284600F002FD0028DED1F6
:100D800070BD10B5044600F0E7FC0068005D00F09F
:100D9000010010BD3A2800D2303820F02002412A4C
:100DA00001D3A2F13700884201D34FF0FF307047E2
:100DB0002DE9F34F4FF0000A0C4656468DB0012046
:100DC0000C9001F10C000B9062690B980121904787
:100DD000051E2DD0252D2CD0216A8847C0B162690F
:100DE0000B9801219047216A88470028F7D1626952
:100DF000411E0B98904700E0761CA1690D9888472A
:100E0000216A88470028F7D1E1690D988847DBE718
:100E1000A1690D988847A842074601D1761CD3E7FF
:100E2000E1690D9888477F1C02D1BAF1000F6FD09D
:100E30006BE162690B9800273D46394690472A28A6
:100E400004D162690B98012190470125DFF8D08217
:100E500062690B9801219047A0F130010A290AD25A
:100E60004745E5DC07EB870100EB4107303FDFD466
:100E700045F01005ECE7E90601D46FF000476C2857
:100E80000AD04C2814D0682815D06A280DD07428B0
:100E90001CD07A281AD01DE062690B980121904776
:100EA0006C2802D045F0040514E045F002050DE081
:100EB00045F020050AE062690B98012190476828F7
:100EC00002D045F0080505E045F4006562690B981D
:100ED00001219047C4E9015765283DD019DC582805
:100EE0007AD00CDC452837D004DC252826D04128D0
:100EF0009ED131E046282FD0472899D12CE05B289D
:100F000077D0612828D063287CD0642823D15AE088
:100F1000F6E06F2848D008DC66281DD067281BD073
:100F2000692821D06E2816D127E0702845D0732873
:100F300068D0752847D078280DD14DE0A1690D986B
:100F40008847252805463FF469AFE1690D98884731
:100F50006D1C3FF46AAFD8E00D9923466A466FF0E6
:100F600001000BF0F2F9C5E045F0400023464FF0D8
:100F700000026060A80736D43EE0E8077FF447AF80
:100F80002068011D21600068290501D506701BE756
:100F9000290701D5068017E7A90703D5F117C0E98E
:100FA000006111E706600FE745F0400023464FF06F
:100FB00008026060A80716D41EE040F60E0125EA7C
:100FC0000100606016E045F0400023464FF00A0241
:100FD0006060A80707D40FE045F040006060A807F4
:100FE00008D5234610220D996FF00100FFF7EBFAA8
:100FF00080E007E0102223460D996FF00100FFF713
:101000008DFB77E04FF0000963284F46C8464B46FA
:10101000CB4602D05B2806D038E0E80601D4012098
:10102000A060012732E06269D4F80CB00B9801216E
:1010300090475E2807D14FF0010949466269D4F80C
:101040000CB00B989047216939B900210A4603ABCF
:1010500043F82120491C0829FADBD8B3216949B398
:1010600008F1010862690B98012190475D28F4D1CD
:10107000B9F1000F09D0002003A951F82020D24374
:1010800041F82020401C0828F7DB03AB206900282A
:1010900020794FEA40701ED05B462246CDF8008092
:1010A000CDE901970D9900286FF0010020DAFFF7D4
:1010B0007FFD1FE0C11703AA00EBD1614B1121F0A6
:1010C0001F0102EB8302411A136801208840034389
:1010D0001360C7E719E00D99224600286FF0010060
:1010E000009702DAFFF766FC04E0FFF7BDFB01E0C2
:1010F000FFF7EAFC00280ADA401C06D10C9820B160
:101100004FF0FF300FB0BDE8F08F5046FAE7E90727
:1011100001D10AF1010A064400200C9054E60000B7
:10112000CCCCCC0C2DE9FF4F06468BB00878FF28BD
:1011300006D0491C2D2805D000244FF0000908E0F6
:1011400000200CE00124F8E709EB8903491C00EBBF
:1011500043090878FF28F7D114B1C9F1000081468E
:10116000107800252C46AA4629462D2801D02B2888
:1011700004D1521C2D2813D0002082468B461078B3
:10118000FF280FD04FF0000C0A21521CA5FB01785C
:1011900004FB018105FB0C11C5194BEB0104EEE7C3
:1011A0000120EAE7002108464FF00000BAF1000FE5
:1011B00002D000EB80004008C0F38157012F01DD11
:1011C0004FF0FF370E9955EA040009EB01080BD0E8
:1011D0004FF0020918F5FA7F16DA4FEACA70002FAD
:1011E000706008DD012007E04FEACA70C6E900B070
:1011F0000FB0BDE8F08F00203060FFF78FFDC0F822
:1012000000901821084616E0B8F5FA7F18DD002F87
:1012100002DAF748784401E0F6487844D0E9001053
:10122000C6E9001040EACA707060FFF777FDC0F8A9
:101230000090142108460FB0BDE8F04F0BF022B823
:10124000002108464FF00000B8F10001099002DAD1
:10125000C7F1000200E03A4601DAC8F1000106A831
:1012600000F012FB06AB93E8070003AB83E807002E
:1012700044F23E005BEA04010090584604D144F277
:101280001E012C465D460091210C0904014306D144
:101290000099240444EA15442D041039009104F007
:1012A0007F41014306D10099240244EA15642D02CE
:1012B0000839009104F07041014306D100992401DE
:1012C00044EA15742D01091F009104F040410143C7
:1012D00006D10099A40044EA9574AD00891E0091DE
:1012E00004F00041084304D100986D196441401E88
:1012F00000904FF001033A466846B8F1000FCDE97F
:10130000014503A902DD0AF0EEFA01E00AF0C1FA94
:10131000BAF1000F04460D4601D084F000440021CC
:1013200008464FF00000099940F2FF77484010F05E
:101330000C0F07D124F00040284303D0C4F30A5017
:10134000B84212D1FFF7EAFCC0F80090C4F30A508B
:10135000B8420AD1A8487844D0E90010C6E9001084
:1013600004F000410843706042E7C6E900543FE7DB
:101370002DE9FF4F1F464FF0000A4FF0FF3845465A
:1013800091B0D7E90146CDF83CA000F0F1F9C06872
:101390000168405C1090B96912986D1C8847396AE1
:1013A000814688470028F6D1B9F1FF3F0AD0002EC8
:1013B00024F4D06411DDB9F12B0F08D0B9F12D0F51
:1013C0000BD102E0404615B013E744F48064B969DC
:1013D00012986D1C8847761E8146600504A901D5C8
:1013E0002D2000E02B20002E01F1010B0DF1300823
:1013F0008DF810003FDDB9F1690F08D0B9F1490F40
:1014000005D0B9F16E0F02D0B9F14E0F1CD13B4699
:1014100001A8009580E85002DDE912126FF0020089
:101420000AF097FFC11CCED10EE0B96912986D1C6D
:10143000884781461398761E44F4007405600F981F
:10144000401C002E0F9016DDB9F1300FEDD0B9F130
:10145000780F02D0B9F1580F0DD10F9801280AD199
:101460003B46CDE90054DDE91212001F02960AF056
:101470006EFFC11CA7D1109989453ED144F080046C
:1014800006E01399681CAAF1010A44F4007408608C
:10149000B9696D1C1298761E884730288146F0D0B5
:1014A0002BE01099894505D1200603D4761E44F01F
:1014B000800418E048460AF066FC08B3761E0DF179
:1014C00023029345A9F1300044F4007406D20BF8CE
:1014D000010B200607D5AAF1010003E0200602D483
:1014E0000AF101008246A00502D51399681C086024
:1014F000B96912986D1C88478146002ED1DC53E0F3
:10150000002E51DDB9F1650F02D0B9F1450F4BD175
:10151000A00549D5B9696D1C1298761E24F4407453
:101520008847002E81460CDD2B2804D0B9F12D0F01
:1015300007D144F48074B96912986D1C8847761EEF
:101540008146E00501D52D2100E02B2108F8011B83
:10155000CDF8008021E0761E0DF13901884544F474
:1015600000740CD2A9F1300010F0FF0088F80000E0
:1015700002D10099884509D908F1010806E0E00583
:1015800001D51E4801E042F20F708246B9691298F7
:101590006D1C8847814613980560002E04DD48467F
:1015A0000AF0F1FB0028D6D1F96912988847FF208C
:1015B00053468BF8000088F8000000200A900B903A
:1015C00004AA0CA90AA8FFF7ADFDA00502D46FF08C
:1015D0000100F8E614F0240F12D0E0071CD138689F
:1015E000DDE90A12031D3B600068C0E9001213E048
:1015F00094B2000086B200004AB10000F1D8FFFFAB
:101600000AA968460AF0ACFBE00705D13868009AE1
:10161000011D3960006802602846D4E610B508E074
:1016200030F8024B9C4204D10AB1002010BD0120C9
:1016300010BD491EF4D2104610BDF8B516460C4632
:10164000054600F089F8036893F80101012804D0E9
:10165000185D78B101202C80F8BDD3F80301324623
:10166000214603F20313C71868460023B8470099C0
:101670002980F8BD4FF0FF30F8BD2DE9F041164646
:101680000C46054600F068F8036893F8010101284C
:1016900007D0FF2C12D8185D80B101202C70BDE856
:1016A000F081D3F807013246214603F20713C71829
:1016B0002846BC46BDE8F041002360474FF0FF30AC
:1016C000EDE72DE9F0410646FFF724FB804645464D
:1016D00013E016B1E068B0420ED120682860D4E96A
:1016E0000101D8F800708847204600F093F8D8F838
:1016F0000000B842EBD100E025462C68002CE8D170
:10170000BDE8F08100487047280000207546FFF7CB
:10171000F9FFAE4605006946534620F007008546AE
:1017200018B020B5FEF7A4FDBDE820404FF000063C
:101730004FF000074FF000084FF0000BAC46ACE84C
:10174000C009ACE8C009ACE8C009ACE8C00921F0A8
:1017500007018D467047000010B500F009F8001D24
:1017600010BD00BFEDA6000000487047300000200B
:101770000048704748000020704770477047704726
:1017800038B504460A4600206946AFF300800028B9
:1017900008BF38BD02460099204600F0F0F801204D
:1017A00038BD012000F035BBF8B5AFF30080054629
:1017B00000200C46102000BF0646A819A0420DD9F3
:1017C000324669460020AFF30080070008BF00F0F2
:1017D00020FB0098A04218BF0546C419FFF7C4FFBC
:1017E00005600746F01D20F007004619284600F066
:1017F0000AF8B44208BFF8BDA21B31463868BDE8FC
:10180000F84000F0BCB800210160C0E90110704749
:101810001020704770B50446051FFFF7A5FF00684C
:10182000002C14BF446870BD002C18BFAC423CBFF4
:1018300020466468F8D301680A18AA4218BF4560B8
:1018400003D12A6805461144016028684119A14264
:101850001CBF6C6070BD61686960216808442860C5
:1018600070BDB2F120030AD5C2F1200301FA02F1E2
:1018700020FA03F341EA030100FA02F0704700FA8C
:1018800003F14FF0000070472DE9F04781461646FE
:101890008AB0354878440DC88DE80D003248784448
:1018A000801C03AC0DC884E80D0041F69B30084451
:1018B000372190FBF1F290FBF1F5A5F1800501FBDA
:1018C00012041B3C02D56442012000E00020DFF836
:1018D00098A080460027FA44AAF1BE0A0EE0E0076D
:1018E0000AD03246684607EB470101230AEB810123
:1018F00009F0E4FF8DE8070064107F1C002CEED196
:10190000194F7F44AE3F19E0E80715D007EB0410EC
:101910000DF1180A90E80E008AE80E00C068F04247
:1019200001D1981908903246012306A903A809F0AD
:10193000C5FF03AB83E807006D10641C002DE3D1E5
:101940004FF0010332466946B8F1000F03A802D0F8
:1019500009F08AFF01E009F0B1FFC9E90001C9F807
:1019600008200AB0BDE8F0876CAB000010B5044653
:10197000AFF300802046BDE81040FEF765BC03468B
:1019800040688C46002818BF88423CBF0346406828
:10199000F8D318681844884207D00CF1030020F0EF
:1019A0000700001D411A521A0146081D0A60FFF780
:1019B00031BF00002DE9FF4F1F464FF03C0987B0B3
:1019C0004FF00042DDE9141001F10108DDF858A0E4
:1019D00002EA4050039000200590834605460446E5
:1019E0000490B969461E08988847AAF1010A029036
:1019F000BAF1000F3BDD02982E2815D01021FFF719
:101A0000C9F900282EDB4FF0010B0599014317D0CF
:101A1000B9F1000F0BDB4A46C117FFF722FF054360
:101A20000C43A9F1040905E0012004900BE008B182
:101A300045F0010501200590049820B9361D02E00B
:101A4000049800B1361FB969089808F10108884761
:101A5000BBF1000FAAF1010A0290C9D00999C1F89F
:101A60000080C5E70298702808D0502806D0F96990
:101A700008988847BBF1000F14D04FE00020029077
:101A80000120BBF1000F049009D0B969089808F152
:101A900001088847AAF10109B9F1000F07DCF969CB
:101AA000089888476FF001000BB0BDE8F08F2B2835
:101AB00004D02D280CD14FF0FF300490B96908985C
:101AC00008F101088847A9F10109B9F1000FE6DD25
:101AD000411CE4D00A21FFF75DF90028DFDB029901
:101AE00008F1010801EB810100EB41000290B969A6
:101AF000089888470A21FFF74DF9099AA9F10109C9
:101B0000B9F1000FC2F8008001DD0028E7DAF969B9
:101B1000089888470499029800FB016655EA04007A
:101B200004D004F04041090002D006E0039898E098
:101B3000A40044EA9574AD00B61E04F0004108000C
:101B400002D16D196441761E159810F0240F03D050
:101B50004FF00B095C4803E04FF028096FF07D005F
:101B60008246564507DAAAEB06018944B9F1410FCE
:101B700001DD4FF0410901200021A9F10102FFF729
:101B800070FE024628400B462140084301D0012147
:101B900000E00021501E029143F1FF312840214016
:101BA000084301D0012000E000200299834651EA59
:101BB0000B014FD0002108464FF00000039900F4BC
:101BC000400039B100EB80004FF4400100EBD070D1
:101BD00001EA60008015012802DD4FF0FF3000E0CF
:101BE00013D0401C36D0029860B3BBF1000F0CD16B
:101BF0004A4601200021FFF734FE284021400843D7
:101C000001D0012000E00020E0B101204A4600217F
:101C1000FFF727FE034640190A4661412D1A8C4101
:101C200011D3B9F1400F09DD159810F0240F02D03F
:101C3000AAF1340603E0AAF1170600E0761C00259D
:101C40004FF0004406E05B1E42F1FF3220EA03053C
:101C500021EA0204CAF10100B04206DA1B490398E6
:101C600008430190002000900EE0039AC4F3D321B2
:101C7000E80A0A43164940EA44500A433146CDE98E
:101C8000000268460AF075F8159810F0240F0BD082
:101C90001598C00715D13868DDE90012031D3B60B7
:101CA0000068C0E900120CE002A869460AF058F882
:101CB0001598C00705D13868029A011D396000687F
:101CC00002604046F0E6000002FCFFFF0000F07FEB
:101CD0000000F03F2DE9FF4F92461D4685B04FF0C2
:101CE0000041DDE9124BDDE914727F1E01EA4B5021
:101CF000414940F0FF4940EA0108002122F020005C
:101D00004928049102D04E2828D04CE03BA001265F
:101D100007C88DE80700A9690698641C88477F1EDC
:101D2000014606D41DF8060018B121F020018142B9
:101D30000BD0E96906988847032E34D0082E32D09C
:101D40006FF0010009B0BDE8F08F761C032E01D0C2
:101D5000082EE0D1601CCAF80000DCE7A9690698EB
:101D6000641C88477F1E2AD420F02000412826D1F9
:101D7000A9690698641C88477F1E20D420F02000A3
:101D80004E281CD1A9690698641C88477F1E48F418
:101D9000002849F48009CAF8004001D4282806D058
:101DA000E969069888475FEACB7012D022E0A969FA
:101DB0000698641C88477F1E01D4002803DAE9696D
:101DC00006988847BCE72928F1D1641CCAF800406E
:101DD000E9E71BF0240F07D028680499031D2B6046
:101DE0000068C0E9001805E02868021D2A60006844
:101DF000C0F800902046A5E70000F07F494E464914
:101E00004E49545900000000002801D000F046B8A7
:101E1000704710B500F062F8BDE81040FFF7F4BF5E
:101E200030B44FF0013C50F8042B51F8043BCCFA8D
:101E300052F4D51A20D1FCB950F8042B51F8043BC8
:101E4000CCFA52F4D51A17D1B4B950F8042B51F882
:101E5000043BCCFA52F4D51A0ED16CB950F8042BCD
:101E600051F8043BCCFA52F4D51A05D1002CDAD043
:101E700030BC4FF00000704729BAB1FA81F111F07F
:101E80001801D1F120008440F2D1CA40CB4012F0B9
:101E9000FF0213F0FF0330BCD01A7047014918202D
:101EA000ABBEFEE726000200704770B505460C4643
:101EB0000A2000E06D1C00F039F835B128780028C0
:101EC000F8D102E0641C00F031F814B12078002849
:101ED000F8D1BDE870400A2000F028B810B50128FC
:101EE00005D0002103A0FFF7E0FF012010BD09A1EC
:101EF000F8E7000053494752544D454D3A204F757D
:101F000074206F662068656170206D656D6F7279F1
:101F1000000000003A2048656170206D656D6F72A9
:101F20007920636F727275707465640008B56946D4
:101F30008DF800000320ABBE08BD000080B540F264
:101F4000CC40C2F2000000F069FD40F21450C2F231
:101F5000000000F063FD80BD82B0019042F20030CD
:101F6000C4F2010000900099486820F440304860B5
:101F700001984268009948681043486001980168D8
:101F8000486820F4807048600198016802694868D8
:101F900040EA0220486001980168486820F04070DB
:101FA0004860019801688268486810434860019859
:101FB0000168886820F40060886001980168C26840
:101FC0008868104388600198806A0121C0F600711A
:101FD000884219D0FFE701980168886820F0706096
:101FE000886001980168826A886810438860019857
:101FF0000168886820F04050886001980168C26AD2
:102000008868104388600CE001980168886820F0B7
:102010007060886001980168886820F0405088608E
:10202000FFE701980168886820F002008860019845
:10203000027E0168886840EA42008860019890F852
:102040002000C8B1FFE701980168486840F40060CB
:10205000486001980168486820F460404860019831
:102060000168426A4EF20000CFF6FF7000EB423288
:1020700048681043486006E001980168486820F409
:1020800000604860FFE701980168C86A20F47000AA
:10209000C86201980168C2690020CFF6F07000EBB9
:1020A0000252C86A1043C86201980168886820F427
:1020B00000708860019890F830200168886840EAD4
:1020C0004220886001980168886820F480608860F8
:1020D000019801684269886840EA8220886002B0FD
:1020E0007047000083B0019000208DF80300FFE7E7
:1020F0009DF90300052818DCFFE79DF9031040F265
:102100000400C2F2000050F821000199884205D174
:10211000FFE79DF803008DF80B000AE0FFE79DF84C
:10212000030001308DF80300E2E7FF208DF80B007B
:10213000FFE79DF90B0003B07047000082B08DF8F7
:1021400003009DF90300B0F1FF3F0FDBFFE79DF9AE
:10215000030005280ADCFFE79DF9031040F20400A4
:10216000C2F2000050F82100019002E0002001902E
:10217000FFE7019802B07047FFE7FEE780B540F245
:102180008450C2F2000001F011F880BD80B540F229
:10219000E450C2F2000001F009F880BD80B540F2C1
:1021A0004460C2F2000001F001F880BD82B00190ED
:1021B0000198007810384AF6AB21CAF6AA21A0FB94
:1021C00001100009009000994CF23440C0F6000064
:1021D000405C0199C8650098042807D3FFE701997E
:1021E0000868042262F30900886506E0019908681E
:1021F00040F2FF3290438865FFE70198806D02B09E
:102200007047000086B0059000208DF813000598F7
:10221000806A03900598806910BBFFE703980290DD
:1022200003281BD80299DFE801F0020D0218059877
:1022300090F82F00C00720B1FFE701208DF81300B0
:10224000FFE70CE00598C06AB0F1C07F04D1FFE75A
:1022500001208DF81300FFE701E000E0FFE745E013
:1022600005988069B0F5005F25D1FFE703980190DC
:1022700003281ED80199DFE801F0020602110120AF
:102280008DF8130016E0059890F82F00C00720B1D4
:10229000FFE701208DF81300FFE70BE00598C06A07
:1022A000B0F1C07F04D1FFE701208DF81300FFE7F4
:1022B00000E0FFE719E003980090032804D3FFE74C
:1022C0000098032804D00EE001208DF813000BE0E5
:1022D000059890F82F00C00720B1FFE701208DF886
:1022E0001300FFE700E0FFE7FFE7FFE79DF81300BB
:1022F00006B0704784B00390029101920093039856
:102300000168086820F48020086000980399096833
:10231000486003988068402809D1FFE70198039935
:1023200009688860029803990968C86008E0029803
:10233000039909688860019803990968C860FFE7F4
:1023400004B070477047000072B6FFE7FEE7000078
:1023500085B003900291029880690121C0F20F01BB
:10236000884201D0FFE7FFE7FFE7039890F83C00C1
:10237000012804D1FFE702208DF813004DE10399F5
:10238000012081F83C00FFE7FFE7029800680A2877
:102390001CD3FFE70298008800EB4000A0F11E016B
:1023A000072000FA01F203980168C8689043C860EA
:1023B00002998868098801EB41011E3900FA01F28F
:1023C00003980168C8681043C86018E00298008844
:1023D00000EB4001072000FA01F203980168086948
:1023E0009043086102998868098801EB410100FA6D
:1023F00001F203980168086910430861FFE7039838
:102400000168886B20F440108863029801690020FD
:10241000CFF6F07000EB015203980168886B10430F
:102420008863029948680969401AC11CC8B28000D3
:1024300050FA81F11F2000FA01F203980168886BBD
:1024400090438863029A108851681269891ACA1CDD
:10245000D1B2890051FA82F100FA01F203980168C1
:10246000886B10438863029880690121C0F20F01D4
:1024700088421BD0FFE703980168886820F4702029
:1024800088600298826903980168886810438860B0
:1024900003980168886820F4401088600298C26937
:1024A000039801688868104388600CE0039801680D
:1024B000886820F47020886003980168886820F498
:1024C00040108860FFE70298407D38B1FFE703982D
:1024D0000168486840F48060486006E0039801683D
:1024E000486820F480604860FFE70298007D38B1BA
:1024F000FFE703980168486840F48050486006E0B0
:1025000003980168486820F480504860FFE702980B
:1025100040680090012808D0FFE70098022813D0F7
:10252000FFE7009803281ED02CE003980168486953
:1025300040F6FF72904348610298C26803980168B0
:102540004869104348612CE003980168886940F6A7
:10255000FF72904388610298C26803980168886995
:10256000104388611DE003980168C86940F6FF7256
:102570009043C8610298C26803980168C869104313
:10258000C8610EE003980168086A40F6FF72904344
:1025900008620298C26803980168086A10430862DA
:1025A000FFE742F20030C4F2010001900398006896
:1025B00042F20001C4F2010188420BD1FFE7029808
:1025C0000068122806D1FFE70199486840F48000AE
:1025D0004860FFE70398006842F20001C4F201017D
:1025E000884210D1FFE702980068102805D0FFE765
:1025F00002980068112806D1FFE70199486840F465
:1026000000004860FFE7FFE70399002081F83C00E5
:10261000FFE700208DF81300FFE79DF8130005B0D9
:102620007047000080B588B00790079840F2CC4111
:10263000C2F20001884240F0AA80FFE7079801211A
:1026400000F0AAF840F29C11C2F200010391086068
:102650000798022100F0A0F840F2A011C2F2000198
:10266000019108600798032100F096F840F2A41148
:10267000C2F20001029108600798042100F08CF872
:10268000019B029A8446039840F2A811C2F200010D
:10269000C1F800C090ED000AB8EE400A40F2BC401C
:1026A000C2F2000090ED001A30EE410A9FED391A97
:1026B00020EE010AB1EE002A20EE020A40F2880064
:1026C000C2F20000049080ED000A93ED000AB8EE1B
:1026D000400A40F2C043C2F2000393ED003A30EEEC
:1026E000430A20EE010A20EE020A40F2BC03C2F2C5
:1026F0000003059383ED000A92ED000AB8EE400A4C
:1027000040F2C442C2F2000292ED003A30EE430AB7
:1027100020EE010A20EE020A40F2F002C2F20002AC
:10272000069282ED000A91ED000AB8EE400A20EE12
:10273000010AB2EE061A20EE010A40F28811C2F236
:10274000000181ED000A90ED000A40F28C00C2F217
:10275000000005F01DFB0499059881ED000A90ED3D
:10276000000A40F2C000C2F2000005F011FB05991A
:10277000069881ED000A90ED000A40F2F400C2F2E2
:10278000000005F005FB069880ED000AFFE708B0A1
:1027900080BD00BF3333533A84B0039002910020D0
:1027A0000190039801686FF00400086002980138F6
:1027B00001460091032818D80099DFE801F0110CB8
:1027C000070203980068806C01900FE0039800688E
:1027D000406C01900AE003980068006C019005E0ED
:1027E00003980068C06B019000E0FFE7019804B017
:1027F0007047000085B00390029100200190FFE730
:10280000039890F83C00012804D1FFE702208DF8DE
:102810001300F7E00399012081F83C00FFE7FFE790
:10282000029800680A281CD3FFE70298008800EB92
:102830004000A0F11E01072000FA01F20398016890
:10284000C8689043C86002998868098801EB410113
:102850001E3900FA01F203980168C8681043C86085
:1028600018E00298008800EB4001072000FA01F20E
:10287000039801680869904308610299886809888B
:1028800001EB410100FA01F2039801680869104365
:102890000861FFE70298406806281BD8FFE7029806
:1028A000406800EB8000411F1F2000FA01F20398EE
:1028B0000168486B9043486302990888496801EBB6
:1028C0008101053900FA01F203980168486B104351
:1028D00048633DE0029840680C281CD8FFE7029846
:1028E000406800EB8000A0F123011F2000FA01F2F4
:1028F00003980168086B9043086302990888496847
:1029000001EB8101233900FA01F203980168086B99
:10291000104308631BE00298406800EB8000A0F1C0
:1029200041011F2000FA01F203980168C86A904330
:10293000C86202990888496801EB8101413900FAAF
:1029400001F203980168C86A1043C862FFE7FFE715
:1029500042F20030C4F2010000900398006842F295
:102960000001C4F2010188420BD1FFE70298006820
:10297000122806D1FFE70099486840F480004860BB
:10298000FFE70398006842F20001C4F201018842A7
:102990002ED1FFE702980068102805D0FFE70298C3
:1029A0000068112824D1FFE70099486840F400002E
:1029B000486002980068102819D1FFE740F2000033
:1029C000C2F2000000684DF68361C4F21B31A0FB27
:1029D0000110800C00EB800040000190FFE701989F
:1029E00020B1FFE7019801380190F8E7FFE7FFE722
:1029F000FFE70399002081F83C00FFE700208DF8F5
:102A00001300FFE79DF8130005B0704781B00090F8
:102A100001B0704781B0009001B0704780B586B0BA
:102A200005900020049003900598006800680290CB
:102A30000598006840680190029800F00200049038
:102A4000019800F020000390049800284AD0FFE786
:102A50000398002846D0FFE70598006CC0060028C0
:102A600006D4FFE70599086C40F400700864FFE79E
:102A700005980068806810F0405F2AD1FFE705984C
:102A8000007E30BBFFE705980068C06A10F4700F45
:102A900007D0FFE70598006880684005002818D433
:102AA000FFE705980168486820F020004860059914
:102AB000086C20F4807008640598006CC00400283D
:102AC00006D4FFE70599086C40F001000864FFE7B1
:102AD000FFE70598FFF79AFF059801686FF012006D
:102AE0000860FFE7029800F004000490019800F0ED
:102AF000800003900498002858D0FFE7039800282E
:102B000054D0FFE70598006CC006002806D4FFE704
:102B10000599086C40F400500864FFE705980068C8
:102B2000806810F4401F38D1FFE705980068806B7B
:102B300010F4401F07D0FFE7059800688068400543
:102B400000282AD4FFE7059800684068400500285F
:102B500023D4FFE705980068806810F0405F1CD11F
:102B6000FFE70598007EC0B9FFE70598016848684F
:102B700020F0800048600599086C20F480500864BB
:102B80000598006CC005002806D4FFE70599086C7D
:102B900040F001000864FFE7FFE70598FFF742FDFA
:102BA000059801686FF00C000860FFE7029800F0DC
:102BB00001000490019800F0400003900498C0B117
:102BC000FFE70398A8B1FFE7059800680068C00711
:102BD00070B1FFE70599086C40F4803008640598EF
:102BE00000F07EF8059801686FF001000860FFE7CB
:102BF000FFE7029800F020000490019800F0806048
:102C000003900498B0B1FFE7039898B1FFE70599E6
:102C1000486C40F002004864059801686FF020009D
:102C2000009008600598FFF7F5FE0098059909687F
:102C30000860FFE706B080BD80B584B00290002038
:102C40008DF80700029820B9FFE701208DF80F00EA
:102C500042E00298806A0121C0F60071884201D0EA
:102C6000FFE7FFE70298006C50B9FFE7029800F019
:102C70003BF8029900204864029981F83C00FFE784
:102C80000298006CC006002817D4FFE70298006C79
:102C900040F0020020F48850029908640298FFF77F
:102CA0005BF90299002048640298006C40F0010032
:102CB00020F002000299086403E001208DF807006B
:102CC000FFE7FFE70299002081F83C00FFE79DF84D
:102CD00007008DF80F00FFE79DF80F0004B080BDDE
:102CE00081B0009001B0704780B58EB00D9000208B
:102CF0000C900B900A90099008900D98006842F291
:102D00000001C4F20101884239D1FFE7FFE700204A
:102D1000079043F64400C4F20200016841F4807158
:102D20000160006800F4807007900798FFE7FFE7F4
:102D30000020069043F63000C4F20200016841F022
:102D400001010160006800F0010006900698FFE7AD
:102D50001F20089003200990002002900A90002074
:102D6000C4F2020008A900F0CBFC029A12200390E2
:102D7000052101F029F9039801F01CF942E00D98B2
:102D8000006842F20011C4F20101884239D1FFE724
:102D9000FFE70020059043F64400C4F202000168FA
:102DA00041F400710160006800F40070059005981E
:102DB000FFE7FFE70020049043F63000C4F2020072
:102DC000016841F001010160006800F00100049019
:102DD0000498FFE72020089003200990002000902D
:102DE0000A900020C4F2020008A900F089FC009AB1
:102DF00012200190052101F0E7F8019801F0DAF8BE
:102E0000FFE7FFE70EB080BD80B584B00290029866
:102E100020B9FFE701208DF80F00E0E0029890F85C
:102E2000200020B9FFE7029800F0DEF8FFE70298E3
:102E30000168086840F00100086000F055FE01904C
:102E4000FFE7029800684068C007A8B9FFE700F0F4
:102E50004BFE0199401A0B280DD3FFE70299486AEF
:102E600040F4003048620299052081F820000120DA
:102E70008DF80F00B3E0E4E702980168086820F0DD
:102E80000200086000F030FE0190FFE70298006841
:102E900040688007002815D5FFE700F025FE01995E
:102EA000401A0B280DD3FFE70299486A40F400301E
:102EB00048620299052081F8200001208DF80F005A
:102EC0008DE0E3E70298007E012807D1FFE7029832
:102ED0000168086840F08000086006E00298016818
:102EE000086820F080000860FFE70298407E012813
:102EF00007D1FFE702980168086840F040000860C9
:102F000006E002980168086820F040000860FFE7CA
:102F10000298807E012807D1FFE7029801680868BF
:102F200040F02000086006E002980168086820F080
:102F300020000860FFE70298C07E012807D1FFE764
:102F400002980168086820F01000086006E0029806
:102F50000168086840F010000860FFE70298007FF1
:102F6000012807D1FFE702980168086840F00800CF
:102F7000086006E002980168086820F00800086010
:102F8000FFE70298407F012807D1FFE70298016818
:102F9000086840F00400086006E0029801680868CC
:102FA00020F004000860FFE7029B19685A689868DF
:102FB000D3F80CC040EA0C00D3F810C040EA0C0073
:102FC0005B691843013A1043C861029900204862C6
:102FD000029A012182F820108DF80F00FFE79DF87A
:102FE0000F0004B080BD000080B588B007900020BD
:102FF000069005900490039002900798006846F2AE
:103000000041C4F20001884235D1FFE7FFE700200C
:10301000019043F64000C4F20200016841F00071E3
:103020000160006800F0007001900198FFE7FFE781
:103030000020009043F63000C4F20200016841F025
:1030400002010160006800F0020000900098FFE7B4
:103050004FF440700290022003900020049003205F
:1030600005900920069040F20040C4F2020002A937
:1030700000F046FBFFE708B080BD000080B584B0DB
:1030800002900298806D019000F02EFD0090029851
:1030900090F8350002280DD0FFE70299802048659E
:1030A000FFE70299002081F83400FFE701208DF846
:1030B0000F0055E002980168086820F016000860CB
:1030C00002980168486920F0800048610298006C0D
:1030D00020B9FFE70298806C38B1FFE702980168D9
:1030E000086820F008000860FFE702980168086897
:1030F00020F001000860FFE7029800680068C00740
:10310000C8B1FFE700F0F0FC0099401A062811D37F
:10311000FFE70299202048650299032081F83500D5
:10312000FFE70299002081F83400FFE703208DF8C3
:103130000F0015E0E0E70298C16D3F20884001993B
:1031400088600299012081F83500FFE7029900208C
:1031500081F83400FFE7FFE700208DF80F00FFE75C
:103160009DF80F0004B080BD82B00090009890F8E8
:103170003500022807D0FFE700998020486501202C
:103180008DF807000EE00099052081F835000098C1
:103190000168086820F001000860FFE700208DF852
:1031A0000700FFE79DF8070002B0704780B586B0C2
:1031B00005900020039040F20000C2F20000006879
:1031C00048F2B511C1F64E31A0FB0110800A029001
:1031D0000598806D01900198006804900498059905
:1031E000C96DC840000700281AD5FFE70598006898
:1031F00000684007002812D5FFE7059801680868B5
:1032000020F0040008600598C16D082088400199ED
:1032100088600599486D40F001004865FFE7FFE7C9
:1032200004980599C96DC840C007A0B1FFE705988B
:1032300000684069000600280CD5FFE70598C16DBD
:1032400001208840019988600599486D40F002008E
:103250004865FFE7FFE704980599C96DC840400736
:10326000002814D5FFE7059800680068800700284B
:103270000CD5FFE70598C16D04208840019988604E
:103280000599486D40F004004865FFE7FFE70498A2
:103290000599C96DC840C006002847D5FFE70598C5
:1032A00000680068000700283FD5FFE70598C16D5A
:1032B00010208840019988600598006800684003E4
:1032C00000281AD5FFE70598006800680003002869
:1032D00009D4FFE70598006C20B1FFE70598016C61
:1032E0008847FFE708E00598806C20B1FFE7059864
:1032F000816C8847FFE7FFE716E0059800680068E3
:10330000C005002807D4FFE705980168086820F089
:1033100008000860FFE70598006C20B1FFE70598FA
:10332000016C8847FFE7FFE7FFE7FFE7049805998F
:10333000C96DC8408006002840F18D80FFE70598E0
:1033400000680068C006002840F18480FFE7059807
:10335000C16D2020884001998860059890F835005B
:10336000052834D1FFE705980168086820F01600A9
:10337000086005980168486920F080004861059858
:10338000006C20B9FFE70598806C38B1FFE705981D
:103390000168086820F008000860FFE70598C16D23
:1033A0003F208840019988600599012081F8350007
:1033B000FFE70599002081F83400FFE70598006DCC
:1033C00020B1FFE70598016D8847FFE77BE005988E
:1033D00000680068400300281AD5FFE705980068D8
:1033E00000680003002809D4FFE70598406C20B16D
:1033F000FFE70598416C8847FFE708E00598C06B38
:1034000020B1FFE70598C16B8847FFE7FFE720E0A1
:10341000059800680068C005002811D4FFE70598EA
:103420000168086820F0100008600599012081F803
:103430003500FFE70599002081F83400FFE7FFE73A
:103440000598C06B20B1FFE70598C16B8847FFE77F
:10345000FFE7FFE7FFE70598406DA0B3FFE705989A
:10346000406DC00730B3FFE70599052081F83500AE
:1034700005980168086820F001000860FFE70398DC
:10348000013003900299884201D9FFE707E0FFE786
:10349000059800680068C0070028F0D1FFE705998B
:1034A000012081F83500FFE70599002081F83400FC
:1034B000FFE7FFE70598C06C20B1FFE70598C16CF6
:1034C0008847FFE7FFE706B080BD000080B586B003
:1034D00004900020039000F007FB0290049820B9AC
:1034E000FFE701208DF81700A3E00498406A08B1B7
:1034F000FFE7FFE70499022081F83500FFE7049910
:10350000002081F83400FFE704980168086820F083
:1035100001000860FFE7049800680068C00790B1E8
:10352000FFE700F0E1FA0299401A06280AD3FFE704
:103530000499202048650499032081F835008DF80E
:10354000170076E0E7E704980068006803900398A6
:1035500048F23F01CFF21001084003900499009116
:103560004868D1F808C0CB680A6940EA0C001843E3
:1035700010434A6910438A691043CA691043096AB3
:1035800001430398084303900498406A042808D133
:10359000FFE70499C86A096B014303980843039045
:1035A000FFE7039804990968086004980068406977
:1035B0000390039820F0070003900498416A039851
:1035C000084303900498406A04281AD1FFE704983E
:1035D000816A0398084303900498C06A80B1FFE7AA
:1035E0000498FEF70FFE50B1FFE7049940204865AC
:1035F0000499012081F835008DF8170019E0FFE7E4
:10360000FFE703980499096848610498FEF7CEFD26
:1036100001900498C16D3F20884001998860049909
:1036200000204865049A012182F835108DF81700B2
:10363000FFE79DF8170006B080BD000080B588B098
:10364000069005910492039300208DF80B000698D4
:10365000806D0190FFE7069890F83400012804D1AE
:10366000FFE702208DF81F0045E00699012081F850
:103670003400FFE7FFE7069890F8350001282BD1CA
:10368000FFE70699022081F8350006990020486579
:1036900006980599049A039BFEF72CFE0698C16DC7
:1036A0003F2088400199886006980168086840F0CA
:1036B000160008600698006C38B1FFE706980168AC
:1036C000086840F008000860FFE70698016808688D
:1036D00040F00100086009E0FFE70699002081F84A
:1036E0003400FFE702208DF80B00FFE79DF80B0088
:1036F0008DF81F00FFE79DF81F0008B080BD000097
:103700008EB00D900C9100200A90099008900B90BB
:10371000FFE70B980F2800F2CC81FFE70B990120FF
:1037200088400A900C9800680A9908400990099806
:103730000A99884240F0B881FFE70C98406800F091
:103740000300012807D0FFE70C98406800F0030051
:1037500002282FD1FFE70D98806808900B98410050
:10376000032000FA01F10898884308900C98C0687B
:103770000B99490000FA01F108980843089008984D
:103780000D9988600D98406808900B99012000FA07
:1037900001F10898884308900C984068C0F3001025
:1037A0000B9900FA01F108980843089008980D99C0
:1037B0004860FFE70C98406800F00300032818D029
:1037C000FFE70D98C06808900B984100032000FAAD
:1037D00001F10898884308900C9880680B9949007B
:1037E00000FA01F108980843089008980D99C860FC
:1037F000FFE70C98406800F00300022826D1FFE79D
:103800000D980B996FF0030202EA51010844006A17
:1038100008900B9800F0070081000F2000FA01F1DA
:103820000898884308900C9800690B9901F00701EB
:10383000890000FA01F108980843089008980D994A
:103840000B9B02EA530211440862FFE70D980068DF
:1038500008900B984100032000FA01F10898884372
:1038600008900C98406800F003000B99490000FA9A
:1038700001F108980843089008980D9908600C9881
:1038800080798007002800F00E81FFE7FFE7002025
:10389000079043F64400C4F20200016841F48041FD
:1038A0000160006800F4804007900798FFE70B98DC
:1038B00020F0030043F60801C4F2010140580890CB
:1038C0000B9800F0030081000F2000FA01F1089826
:1038D000884308900D980021C4F20201884203D168
:1038E000FFE7002006905EE00D9840F20041C4F230
:1038F0000201884203D1FFE70120059050E00D98B6
:1039000040F60001C4F20201884203D1FFE7022021
:10391000049042E00D9840F60041C4F20201884252
:1039200003D1FFE70320039034E00D9841F200013A
:10393000C4F20201884203D1FFE70420029026E08E
:103940000D9841F20041C4F20201884203D1FFE721
:103950000520019018E00D9841F60001C4F2020123
:10396000884203D1FFE7062000900AE00D9941F656
:103970000042C4F202020820914208BF07200090D2
:10398000FFE700980190FFE701980290FFE7029897
:103990000390FFE703980490FFE704980590FFE782
:1039A00005980690FFE70698C0B20B9901F0030155
:1039B000890000FA01F108980843089008980B99CB
:1039C00021F0030143F60802C4F20102885043F6D5
:1039D0000840C4F2010000680890099908988843DB
:1039E00008900C988079C006002805D5FFE7099952
:1039F000089808430890FFE7089843F60841C4F286
:103A00000101086043F60C40C4F201000068089010
:103A100009990898884308900C98807980060028B6
:103A200005D5FFE70999089808430890FFE708982B
:103A300043F60C41C4F20101086043F60440C4F2AD
:103A400001000068089009990898884308900C982C
:103A500080798007002805D5FFE709990898084371
:103A60000890FFE7089843F60441C4F2010108609A
:103A700043F60040C4F201000068089009990898D4
:103A8000884308900C988079C00728B1FFE709990E
:103A9000089808430890FFE7089843F60041C4F2ED
:103AA00001010860FFE7FFE7FFE70B9801300B908B
:103AB0002FE60EB07047000082B00190ADF8021002
:103AC0008DF801209DF8010028B1FFE7BDF8020044
:103AD0000199886105E0BDF8020000040199886140
:103AE000FFE702B07047000044F67C40C2F20000DD
:103AF0000068704780B58EB00C900C9820B9FFE735
:103B000001208DF8370043E10C9890F83D0040B952
:103B1000FFE70C99002081F83C000C9800F03CF97C
:103B2000FFE70C99242081F83D000C980168086893
:103B300020F0010008600C980168086840F400401B
:103B400008600C980168086820F40040086000F0E4
:103B5000BFFB0A900C98406848F2A061C0F20101D6
:103B600088420BD8FFE70A9948F28042C0F21E0251
:103B70000020914238BF012009900AE00A9940F6DE
:103B80000012C0F23D020020914238BF012009908E
:103B9000FFE70998012804D1FFE701208DF83700DD
:103BA000F6E00A984DF68361C4F21B31A0FB0110C8
:103BB000800C0B900C980068406820F03F000B9937
:103BC00008430C99096848600C980068006A20F066
:103BD0003F0008900C98406848F2A061C0F20101D3
:103BE000884204D8FFE70B98013007900EE00B984D
:103BF0004FF49671484344F6D351C1F26201A0FBE1
:103C00000101012000EB91100790FFE70898079948
:103C100008430C99096808620C980068C0694CF662
:103C2000FF71884306900C98406848F2A061C0F28A
:103C3000010188421FD8FFE70A9801380C994968AA
:103C40004900B0FBF1F001306FF31F30032803D8B7
:103C5000FFE7042005900BE00A9801380C994968A9
:103C60004900B0FBF1F001306FF31F300590FFE722
:103C7000059804904CE00C98806868B9FFE70A98B2
:103C800001380C99496801EB4101B0FBF1F00130BA
:103C90006FF31F3003900DE00A9801380C994968C2
:103CA00019225143B0FBF1F00130042161F31F30C0
:103CB0000390FFE70398000518B9FFE70120029081
:103CC00023E00C98806868B9FFE70A9801380C99DE
:103CD000496801EB4101B0FBF1F001306FF31F3097
:103CE00001900DE00A9801380C9949681922514356
:103CF000B0FBF1F00130042161F31F300190FFE7C8
:103D0000019840F400400290FFE702980490FFE71A
:103D10000698049908430C990968C8610C980068D2
:103D2000006820F0C0000C9B1968DA691B6A1A430E
:103D3000104308600C980068806848F2FF3188439F
:103D40000C9A1168D36812691A43104388600C9862
:103D50000068C06820F0FF000C9B19685A699B69D5
:103D60001A431043C8600C980168086840F00100CD
:103D700008600C99002008640C9A202182F83D10FC
:103D80000C9908630C9981F83E008DF83700FFE725
:103D90009DF837000EB080BD80B588B00790002038
:103DA000069005900490039002900798006845F6ED
:103DB0000001C4F20001884235D1FFE7FFE700208F
:103DC000019043F63000C4F20200016841F00201A4
:103DD0000160006800F0020001900198FFE74FF4D5
:103DE0004060029012200390002004900320059070
:103DF0000420069040F20040C4F2020002A9FFF73E
:103E00007FFCFFE70020009043F64000C4F2020070
:103E1000016841F480010160006800F480000090B6
:103E20000098FFE7FFE708B080BD000040F21C00EB
:103E3000C2F20000027844F67C41C2F20001086838
:103E4000104408607047000080B543F60041C4F29A
:103E50000201086840F400700860086840F480605F
:103E60000860086840F480700860032000F0C6F81D
:103E70000F2000F005F800F071F8002080BD000070
:103E800080B58CB00B90002005900490FFE70020D7
:103E9000019043F64400C4F20200016841F480211D
:103EA0000160006800F4802001900198FFE706A8F7
:103EB00003A900F0DDF900F01DFA40000590059817
:103EC0004DF68361C4F21B31A0FB01014FF0FF30BE
:103ED00000EB9140049040F2F070C2F2000044F612
:103EE0000001C4F20101016040F2E731C1600499B0
:103EF0004160002101618160816101F031F88DF83C
:103F00000B009DF80B0028BBFFE740F2F070C2F2F7
:103F1000000001F0EDF88DF80B009DF80B00C0B922
:103F2000FFE71A2000F046F80B980F280CD8FFE79F
:103F30000B991A20002200F047F80B9840F220015C
:103F4000C2F20001086003E001208DF80B00FFE7DA
:103F5000FFE7FFE79DF80B000CB080BD80B582B095
:103F6000FFE70020019043F64400C4F2020001681C
:103F700041F480410160006800F4804001900198A4
:103F8000FFE7FFE70020009043F64000C4F2020084
:103F9000016841F080510160006800F0805000909D
:103FA0000098FFE76FF001000F21002200F00CF8ED
:103FB00002B080BD80B582B08DF807009DF9070082
:103FC00004F048F802B080BD80B586B08DF81700C7
:103FD000049103920020029004F054F802909DF99D
:103FE0001700019002980499039A02F081FC01469F
:103FF000019804F04FF806B080BD000080B582B093
:104000000190019804F08AF802B080BD80B584B0B8
:1040100002900191029820B9FFE701208DF80F006E
:1040200021E1019843F60041C4F20201096801F060
:104030000701884212D9FFE7019943F60040C4F214
:1040400002000170006800F007000199884204D066
:10405000FFE701208DF80F0005E1FFE702980078E7
:10406000800700282AD5FFE702980078400700283B
:1040700009D5FFE743F60801C4F20201086840F4DD
:10408000E0500860FFE7029800780007002809D593
:10409000FFE743F60801C4F20201086840F46040FB
:1040A0000860FFE743F60801C4F20201086820F047
:1040B000F000029A926810430860FFE702980078C7
:1040C000C00700286ED0FFE702984068012811D190
:1040D000FFE743F60000C4F20200006800F400317C
:1040E0000020B0EB514F04D1FFE701208DF80F0005
:1040F000B9E02CE002984068022805D0FFE702985A
:104100004068032811D1FFE743F60000C4F2020023
:10411000006800F000710020B0EB516F04D1FFE7A0
:1041200001208DF80F009EE010E043F60000C4F27D
:104130000200006800F002010020B0EB510F04D132
:10414000FFE701208DF80F008DE0FFE7FFE743F662
:104150000801C4F20201086820F00300029A5268C4
:1041600010430860FFF7C0FC0090FFE743F608002B
:10417000C4F20200006800F00C0002994968B0EB3C
:10418000810F0ED0FFE7FFF7AFFC0099401A41F214
:104190008931884204D3FFE703208DF80F0062E0E5
:1041A000E4E7FFE7019843F60041C4F20201096821
:1041B00001F00701884212D2FFE7019943F600405F
:1041C000C4F202000170006800F007000199884203
:1041D00004D0FFE701208DF80F0044E0FFE70298CC
:1041E0000078400700280CD5FFE743F60801C4F229
:1041F0000201086820F4E050029AD2681043086077
:10420000FFE702980078000700280DD5FFE743F686
:104210000801C4F20201086820F46040029A1269A1
:1042200040EAC2000860FFE700F076F843F60801B4
:10423000C4F202010968C9B20A094CF21C41C0F675
:104240000001895CC84040F20001C2F20001086030
:1042500040F22000C2F200000068FFF711FE0020CB
:104260008DF80F00FFE79DF80F0004B080BD00003F
:1042700082B00190009101990F20086043F6080078
:10428000C4F20200016801F00301019A5160016863
:1042900001F0F001019A9160016801F4E051019A86
:1042A000D160006800F46040C0080199086143F6DD
:1042B0000040C4F20200006800F0070000990860A6
:1042C00002B0704740F20000C2F200000068704780
:1042D00080B5FFF7F7FF43F60801C4F20201096851
:1042E000C1F382224CF22C41C0F60001895CC84027
:1042F00080BD000080B5FFF7E5FF43F60801C4F27A
:104300000201096889B24A0B4CF22C41C0F6000147
:10431000895CC84080BD000080B586B00020059053
:1043200004900390029043F60800C4F20200006873
:1043300000F00C000146019140B1FFE7019804280C
:104340000AD0FFE7019808280CD04FE042F2004065
:10435000C0F2F40002904FE041F20020C0F27A0077
:10436000029049E043F60400C4F20200016801F043
:104370003F01059100684002002813D5FFE743F68E
:104380000400C4F202000068C0F3881041F200216A
:10439000C0F27A01A0FB0101059A0023FBF77AFF26
:1043A000049012E043F60400C4F202000068C0F377
:1043B000881042F20041C0F2F401A0FB0101059A0D
:1043C0000023FBF767FF0490FFE743F60400C4F205
:1043D0000200006800F44031022000EBD13003906D
:1043E00004980399B0FBF1F0029005E042F200401E
:1043F000C0F2F4000290FFE7029806B080BD000012
:1044000080B586B00490049820B9FFE701208DF8AC
:10441000170050E304980078C007002800F0A5803A
:10442000FFE743F60800C4F20200006800F00C0049
:10443000042813D0FFE743F60800C4F20200006826
:1044400000F00C0008281ED1FFE743F60400C4F278
:10445000020000684002002815D5FFE743F600007F
:10446000C4F20200006800F400310020B0EB514FAC
:1044700008D0FFE70498406820B9FFE701208DF8D5
:10448000170018E370E0FFE704984068B0F5803F3C
:1044900009D1FFE743F60001C4F20201086840F4C5
:1044A0008030086020E004984068B0F5A02F0DD15E
:1044B000FFE743F60001C4F20201086840F48020DF
:1044C0000860086840F4803008600CE043F60001A2
:1044D000C4F20201086820F480300860086820F403
:1044E00080200860FFE7FFE7FFE704984068E8B135
:1044F000FFE7FFF7F9FA0390FFE743F60000C4F285
:104500000200006800F400310020B0EB514F0CD1E4
:10451000FFE7FFF7E9FA0399401A652804D3FFE79C
:1045200003208DF81700C6E2E7E71CE0FFF7DCFA8E
:104530000390FFE743F60000C4F20200006800F4B5
:1045400000310020B0EB514F0CD0FFE7FFF7CCFA61
:104550000399401A652804D3FFE703208DF817005C
:10456000A9E2E7E7FFE7FFE7FFE7049800788007A5
:10457000002840F19680FFE743F60800C4F20200ED
:10458000006810F00C0F13D0FFE743F60800C4F2E8
:104590000200006800F00C0008282CD1FFE743F669
:1045A0000400C4F2020000684002002823D4FFE7A0
:1045B00043F60000C4F20200006800F0020100208F
:1045C000B0EB510F09D0FFE70498C068012804D070
:1045D000FFE701208DF817006DE243F60001C4F2F9
:1045E0000201086820F0F800049A126940EAC2004B
:1045F0000860FFE754E00498C06870B3FFE700214B
:10460000C4F2472101200860FFF76EFA0390FFE72C
:1046100043F60000C4F20200006800F0020100202E
:10462000B0EB510F0CD1FFE7FFF75EFA0399401A88
:10463000032804D3FFE703208DF817003BE2E7E7E8
:1046400043F60001C4F20201086820F0F800049A61
:10465000126940EAC200086021E00021C4F247214B
:1046600000200860FFF740FA0390FFE743F60000E0
:10467000C4F20200006800F002010020B0EB510F0C
:104680000CD0FFE7FFF730FA0399401A032804D350
:10469000FFE703208DF817000DE2E7E7FFE7FFE7EC
:1046A000FFE704980078000700284BD5FFE704983F
:1046B000406918B3FFE740F68061C4F2472101204A
:1046C0000860FFF711FA0390FFE743F67400C4F2A5
:1046D0000200006800F002010020B0EB510F0CD185
:1046E000FFE7FFF701FA0399401A032804D3FFE715
:1046F00003208DF81700DEE1E7E722E040F6806155
:10470000C4F2472100200860FFF7EEF90390FFE7AD
:1047100043F67400C4F20200006800F002010020B9
:10472000B0EB510F0CD0FFE7FFF7DEF90399401A09
:10473000032804D3FFE703208DF81700BBE1E7E768
:10474000FFE7FFE7049800784007002840F1CE809B
:10475000FFE700208DF8070043F64000C4F2020096
:104760000068C000002815D4FFE7FFE70020009094
:1047700043F64000C4F20200016841F0805101603C
:10478000006800F0805000900098FFE701208DF84D
:104790000700FFE747F20000C4F200000068C00510
:1047A000002822D4FFE747F20001C4F200010868A4
:1047B00040F480700860FFF797F90390FFE747F235
:1047C0000000C4F200000068C00500280CD4FFE718
:1047D000FFF78AF90399401A032804D3FFE703205F
:1047E0008DF8170067E1EAE7FFE7FFE704988068C4
:1047F000012809D1FFE743F67001C4F202010868FD
:1048000040F0010008601FE00498806805280DD181
:10481000FFE743F67001C4F20201086840F00400AB
:104820000860086840F0010008600CE043F6700181
:10483000C4F20201086820F001000860086820F056
:1048400004000860FFE7FFE7FFE704988068F8B11D
:10485000FFE7FFF749F90390FFE743F67000C4F262
:104860000200006800F002010020B0EB510F0ED1F1
:10487000FFE7FFF739F90399401A41F2893188427D
:1048800004D3FFE703208DF8170014E1E5E71EE0ED
:10489000FFF72AF90390FFE743F67000C4F2020025
:1048A000006800F002010020B0EB510F0ED0FFE7CE
:1048B000FFF71AF90399401A41F28931884204D36B
:1048C000FFE703208DF81700F5E0E5E7FFE79DF827
:1048D0000700012809D1FFE743F64001C4F20201B5
:1048E000086820F080500860FFE7FFE704988069BF
:1048F000002800F0DC80FFE743F60800C4F2020065
:10490000006800F00C00082800F08580FFE704989C
:10491000806902285CD1FFE76021C4F247210020B2
:104920000860FFF7E1F80390FFE743F60000C4F2E8
:104930000200006800F000710020B0EB516F0CD055
:10494000FFE7FFF7D1F80399401A032804D3FFE7E4
:1049500003208DF81700AEE0E7E70499C869D1F8A5
:1049600020C04B6A8A6A40EA0C0040EA8310D203F6
:104970004FF6FF739A43A2F580321043C96A40EAAA
:10498000016043F60401C4F2020108606021C4F230
:10499000472101200860FFF7A7F80390FFE743F6DF
:1049A0000000C4F20200006800F000710020B0EBCB
:1049B000516F0CD1FFE7FFF797F80399401A0328CE
:1049C00004D3FFE703208DF8170074E0E7E721E048
:1049D0006021C4F2472100200860FFF785F80390AA
:1049E000FFE743F60000C4F20200006800F0007127
:1049F0000020B0EB516F0CD0FFE7FFF775F803997B
:104A0000401A032804D3FFE703208DF8170052E073
:104A1000E7E7FFE74AE004988069012804D1FFE74F
:104A200001208DF8170046E043F60400C4F20200AE
:104A30000068029004988069012831D0FFE702984D
:104A400000F480000499C969884229D1FFE70298DF
:104A500000F03F000499096A884221D1FFE70298DB
:104A600047F6C07108400499496AB0EB811F17D11D
:104A7000FFE7029800F440300499896AC9034FF6B1
:104A8000FF729143A1F58031884209D1FFE7029876
:104A900000F070600499C96AB0EB016F04D0FFE7C1
:104AA00001208DF8170006E0FFE7FFE7FFE7002091
:104AB0008DF81700FFE79DF8170006B080BD0000D5
:104AC00080B584B00290029820B9FFE701208DF8EC
:104AD0000F0071E00298406A60B9FFE702984068F1
:104AE000B0F5827F01D1FFE703E002990020C861A1
:104AF000FFE705E002990020086102994861FFE79D
:104B0000029900208862029890F8510040B9FFE7AE
:104B10000299002081F85000029800F051F8FFE758
:104B20000299022081F8510002980168086820F07B
:104B300040000860029A019211685068D2F808C0DB
:104B4000D36800F482700CF4044C604403F40063F6
:104B50001844136903F002031844536903F0010376
:104B60001844936903F400731844D36903F03803BD
:104B70001844136A03F080031843926A02F4005247
:104B800010430860029A508B00F004001168526ACA
:104B900002F010021044486002980168C86920F4CD
:104BA0000060C861029900204865029A012182F8DC
:104BB00051108DF80F00FFE79DF80F0004B080BD85
:104BC00080B596B01590002014901390129011901B
:104BD00010901598006843F20001C4F20101884268
:104BE0005ED1FFE7FFE700200F9043F64400C4F2D8
:104BF0000200016841F480510160006800F48050B7
:104C00000F900F98FFE7FFE700200E9043F630006B
:104C1000C4F20200016841F001010160006800F087
:104C200001000E900E98FFE7FFE700200D9043F67D
:104C30003000C4F20200016841F002010160006826
:104C400000F002000D900D98FFE740201090022028
:104C50000590119000200690129003200790139069
:104C60000520089014900020C4F2020010A90991B8
:104C7000FEF746FDDDF814C0069B079A08980999CF
:104C80004FF0280ECDF840E0CDF844C012931392B7
:104C9000149040F20040C4F20200FEF731FD68E0DB
:104CA0001598006843F60001C4F2000188425FD104
:104CB000FFE7FFE700200C9043F64000C4F202003B
:104CC000016841F480410160006800F480400C906C
:104CD0000C98FFE7FFE700200B9043F63000C4F28A
:104CE0000200016841F004010160006800F0040066
:104CF0000B900B98FFE7FFE700200A9043F6300087
:104D0000C4F20200016841F002010160006800F095
:104D100002000A900A98FFE70C20109002200090F1
:104D20001190002001901290032002901390052012
:104D30000390149040F60000C4F2020010A9049100
:104D4000FEF7DEFCDDF800C0019B029A039804998F
:104D50004FF4005ECDF840E0CDF844C012931392BA
:104D6000149040F20040C4F20200FEF7C9FCFFE7D5
:104D7000FFE716B080BD000081B0009001B0704721
:104D800081B0009001B0704784B002900191002082
:104D90000090FFE7029890F83C00012804D1FFE75B
:104DA00002208DF80F0044E00299012081F83C00B8
:104DB000FFE7FFE7009820F0FF000199C96808436A
:104DC0000090009820F44070019989680843009091
:104DD000009820F480600199496808430090009889
:104DE00020F400600199096808430090009820F4BD
:104DF00080500199096908430090009820F4005000
:104E00000199496908430090009820F48040019975
:104E1000C969084300900098029909684864FFE74F
:104E20000299002081F83C00FFE700208DF80F0078
:104E3000FFE79DF80F0004B07047000085B00390B5
:104E40000291FFE7039890F83C00012804D1FFE7A6
:104E500002208DF813007EE00399012081F83C00C8
:104E6000FFE7FFE70399022081F83D0003980068FF
:104E7000406801900398006880680090019820F0D5
:104E80007000019002980168019808430190019810
:104E9000039909684860039800680021C4F2010181
:104EA00088423CD0FFE703980068B0F1804F36D0CD
:104EB000FFE70398006840F20041C4F20001884215
:104EC0002DD0FFE70398006840F60001C4F200010E
:104ED000884224D0FFE70398006840F60041C4F2FE
:104EE000000188421BD0FFE70398006840F20041B0
:104EF000C4F20101884212D0FFE70398006844F22F
:104F00000001C4F20101884209D0FFE7039800685C
:104F100041F60001C4F2000188420ED1FFE700987B
:104F200020F08000009002984168009808430090AB
:104F30000098039909688860FFE70399012081F8C8
:104F40003D00FFE70399002081F83C00FFE70020C7
:104F50008DF81300FFE79DF8130005B070470000BF
:104F600080B582B00090009820B9FFE701208DF84D
:104F700007003FE0009890F83D0040B9FFE7009936
:104F8000002081F83C00009800F038F8FFE7009915
:104F9000022081F83D00009951F8040B01F07EFEDB
:104FA0000099012081F84600FFE70099012081F86F
:104FB0003E00009981F83F00009981F84000009977
:104FC00081F84100FFE7FFE70099012081F84200E6
:104FD000009981F84300009981F84400009981F814
:104FE0004500FFE70099012081F83D0000208DF881
:104FF0000700FFE79DF8070002B080BD80B586B0CE
:10500000059005980068B0F1804F1BD1FFE7FFE7DE
:105010000020049043F64000C4F20200016841F011
:1050200001010160006800F0010004900498FFE7AE
:105030001C20029005210022FEF7C6FF0298FEF711
:10504000B9FF52E00598006840F20041C4F2000147
:10505000884249D1FFE7FFE70020039043F6400074
:10506000C4F20200016841F002010160006800F032
:10507000020003900398FFE740F28450C2F2000060
:10508000019046F27001C4F2020101604FF020610C
:10509000416000218160C1604FF4806202614FF481
:1050A000006242614FF400528261C161016241625B
:1050B000FEF70CFA18B1FFE7FDF746F9FFE7FFE747
:1050C000059840F28451C2F200014162059888635C
:1050D000FFE7FFE7059840F28451C2F200018163C7
:1050E00005988863FFE7FFE7FFE706B080BD000093
:1050F00083B00190019890F83D00012804D0FFE7AB
:1051000001208DF80B006AE00199022081F83D0032
:1051100001980168C86840F00100C8600198006803
:105120000021C4F2010188423CD0FFE701980068E9
:10513000B0F1804F36D0FFE70198006840F200419F
:10514000C4F2000188422DD0FFE70198006840F6C4
:105150000001C4F20001884224D0FFE701980068F2
:1051600040F60041C4F2000188421BD0FFE70198DD
:10517000006840F20041C4F20101884212D0FFE70A
:105180000198006844F20001C4F20101884209D08C
:10519000FFE70198006841F60001C4F2000188426F
:1051A00012D1FFE701980068806800F007000090C6
:1051B0000098062807D0FFE701980168086840F0CA
:1051C00001000860FFE706E001980168086840F008
:1051D00001000860FFE700208DF80B00FFE79DF855
:1051E0000B0003B07047000080B586B004900391B7
:1051F00000208DF80B00FFE7049890F83C00012890
:1052000004D1FFE702208DF81700ABE004990120DC
:1052100081F83C00FFE7FFE70499022081F83D0098
:105220000498006880680190019820F07700019050
:10523000019820F47F4001900198049909688860E2
:10524000039800680090002872D0FFE700981028AB
:105250006ED0FFE7009820286AD0FFE7009830283A
:1052600066D0FFE70098402855D0FFE70098502807
:1052700037D0FFE70098602840D0FFE700987028FB
:105280000BD0FFE70098B0F5805F05D0FFE70098EE
:10529000B0F5005F16D052E055E004980068039B1B
:1052A0005A689968DB6801F0D1FD0498006880684D
:1052B0000190019840F077000190019804990968E5
:1052C000886040E004980068039B5A689968DB682E
:1052D00001F0BCFD04980168886840F48040886053
:1052E00031E004980068039A5168D26801F09AFF8F
:1052F00004980068502101F0C3FD24E00498006880
:10530000039A5168D26801F0B5FF049800686021E3
:1053100001F0B6FD17E004980068039A5168D2685E
:1053200001F080FF04980068402101F0A9FD0AE027
:10533000049800680399096801F0A2FD03E00120C8
:105340008DF80B00FFE70499012081F83D00FFE78D
:105350000499002081F83C00FFE79DF80B008DF8D0
:105360001700FFE79DF8170006B080BD81B00090E0
:1053700001B0704780B584B0039003980068C0689E
:10538000029003980068006901909DF8040080076E
:10539000002824D5FFE79DF80800800700281DD5C8
:1053A000FFE7039801686FF002000861039901208C
:1053B0000877039800688069800720B1FFE70398A9
:1053C000FFF7D4FF06E0039800F06AF9039800F0B5
:1053D00083FAFFE7039900200877FFE7FFE79DF8CE
:1053E00004004007002825D5FFE79DF80800400786
:1053F00000281ED5FFE7039801686FF004000861DC
:1054000003990220087703980068806910F4407FB0
:1054100004D0FFE70398FFF7A9FF06E0039800F028
:105420003FF9039800F058FAFFE703990020087746
:10543000FFE7FFE79DF804000007002824D5FFE7F9
:105440009DF80800000700281DD5FFE703980168B4
:105450006FF008000861039904200877039800683A
:10546000C069800720B1FFE70398FFF77FFF06E0E0
:10547000039800F015F9039800F02EFAFFE703995E
:1054800000200877FFE7FFE79DF80400C00600282A
:1054900025D5FFE79DF80800C00600281ED5FFE7C8
:1054A000039801686FF010000861039908200877DD
:1054B00003980068C06910F4407F04D0FFE70398A8
:1054C000FFF754FF06E0039800F0EAF8039800F0B5
:1054D00003FAFFE7039900200877FFE7FFE79DF84D
:1054E0000400C00778B1FFE79DF80800C00748B185
:1054F000FFE7039801686FF001000861039800F06E
:10550000EFF9FFE7FFE79DF804000006002810D53B
:10551000FFE79DF808000006002809D5FFE703987B
:1055200001686FF0800008610398FFF725FCFFE732
:10553000FFE79DF804004006002810D5FFE79DF81E
:1055400008004006002809D5FFE7039801686FF0BE
:1055500040000861039800F0E3F9FFE7FFE79DF8DA
:1055600004008006002810D5FFE79DF8080080069B
:10557000002809D5FFE7039801686FF02000086153
:105580000398FFF7FDFBFFE7FFE704B080BD0000D5
:1055900080B58EB00D9000200C900B900A90099071
:1055A00008900D9800680021C4F20101884249D199
:1055B000FFE7FFE70020079043F63000C4F2020047
:1055C000016841F001010160006800F001000790EE
:1055D0000798FFE7FFE70020069043F63000C4F28B
:1055E0000200016841F002010160006800F0020061
:1055F00006900698FFE74FF4F060089002200190B3
:105600000990002002900A900B90012003900C90CA
:105610000020C4F2020008A90491FEF771F8019B72
:10562000029A0398049944F2020CCDF820C0099321
:105630000A920B920C9040F20040C4F20200FEF776
:105640005FF82AE00D98006840F20041C4F20001C2
:10565000884221D1FFE7FFE70020059043F63000A4
:10566000C4F20200016841F004010160006800F02A
:10567000040005900598FFE740200890022009905B
:1056800000210A910B900C9040F60000C4F2020039
:1056900008A9FEF735F8FFE7FFE70EB080BD000070
:1056A00081B0009001B0704780B586B0049003913E
:1056B000029200208DF80700FFE7049890F83C0064
:1056C000012804D1FFE702208DF8170089E0049932
:1056D000012081F83C00FFE7FFE7029800900C28CA
:1056E00000F270800099DFE801F0076D6D6D206DAC
:1056F0006D6D3A6D6D6D530004980068039901F06B
:10570000D5FB04980168886940F008008861049816
:105710000168886920F00400886103980269049890
:10572000016888691043886150E004980068039913
:1057300001F032FC04980168886940F400608861D7
:1057400004980168886920F4806088610398026980
:1057500004980168886940EA0220886136E004986C
:105760000068039901F092FC04980168C86940F050
:105770000800C86104980168C86920F00400C86185
:105780000398026904980168C8691043C8611DE064
:1057900004980068039901F0F3FC04980168C86953
:1057A00040F40060C86104980168C86920F4806012
:1057B000C8610398026904980168C86940EA022038
:1057C000C86103E001208DF80700FFE7FFE70499B7
:1057D000002081F83C00FFE79DF807008DF81700D6
:1057E000FFE79DF8170006B080BD000080B582B0CD
:1057F0000090009820B9FFE701208DF807003FE0F6
:10580000009890F83D0040B9FFE70099002081F82A
:105810003C00009800F038F8FFE70099022081F87A
:105820003D00009951F8040B01F038FA009901206D
:1058300081F84600FFE70099012081F83E000099B9
:1058400081F83F00009981F84000009981F84100FB
:10585000FFE7FFE70099012081F84200009981F8F5
:105860004300009981F84400009981F84500FFE762
:105870000099012081F83D0000208DF80700FFE726
:105880009DF8070002B080BD80B584B003900398F6
:1058900000680021C4F2010188421BD1FFE7FFE745
:1058A0000020029043F64400C4F20200016841F077
:1058B00001010160006800F0010002900298FFE71A
:1058C0001A2001900F210022FEF77EFB0198FEF7BF
:1058D00071FBFFE704B080BD81B0009001B070475C
:1058E00080B582B001900198006844F60001C4F2CE
:1058F0000101884203D1FFE7FEF798FAFFE701981C
:10590000FCF7F0FB8DF803009DF90300013028B18E
:10591000FFE79DF9030001F0D7FCFFE702B080BD6F
:1059200081B0009001B0704780B586B004900391BB
:10593000ADF80A20049890F8420020284DD1FFE7E6
:10594000039820B1FFE7BDF80A0020B9FFE7012066
:105950008DF8170045E004990120086304990020A0
:10596000486304980399BDF80A2001F0C9FF8DF837
:1059700009009DF8090058BBFFE70498006B012857
:1059800021D1FFE7FFE7002001900498006800683C
:10599000019004980068406801900198FFE7FFE7D4
:1059A000FFE70498006850E8030F40F010000090F3
:1059B000FFE700990498026842E803100028F0D13C
:1059C000FFE7FFE703E001208DF80900FFE7FFE7AD
:1059D0009DF809008DF8170003E002208DF81700EC
:1059E000FFE79DF8170006B080BD000080B582B0CB
:1059F0000190ADF80210019840F6C801C2F2000112
:105A0000884203D1FFE702F095F8FFE702B080BDBE
:105A100080B582B00190019840F6C801C2F2000141
:105A2000884212D1FFE7019840F2AC11C2F20001A6
:105A30001022FFF779FF40F2E450C2F20000016843
:105A4000086820F008000860FFE702B080BD000091
:105A500080B592B01190119800680068109011986C
:105A60000068C0680F901198006840690E9000208F
:105A70000D900C90109800F00F000D900D9888B9C3
:105A8000FFE79DF84000800600280AD5FFE79DF853
:105A90003C008006002804D5FFE7119801F0DCFDEA
:105AA000EAE1FFE70D98002800F0C280FFE79DF8CB
:105AB0003800C00738B9FFE7BDF83C0010F4907F0C
:105AC00000F0B680FFE79DF84000C00758B1FFE73F
:105AD0009DF83D00C00730B1FFE71199486C40F0D8
