:020000040800F2
:10000000786F002029020008494800084142000892
:1000100045480008AD0600084D8D000800000000AE
:10002000000000000000000000000000C14C0008BB
:100030008107000800000000514C0008414D0008F5
:10004000430200084302000843020008430200087C
:10005000430200084302000843020008430200086C
:10006000430200084302000843020008430200085C
:10007000430200084302000843020008430200084C
:10008000430200084302000843020008430200083C
:10009000430200084302000843020008430200082C
:1000A0004302000843020008314E000843020008E2
:1000B000430200084302000843020008430200080C
:1000C00043020008430200084302000843020008FC
:1000D00043020008430200084302000843020008EC
:1000E00043020008430200084302000843020008DC
:1000F00043020008430200084302000843020008CC
:1001000043020008430200084302000843020008BB
:1001100043020008430200084302000843020008AB
:10012000430200084302000843020008430200089B
:100130004302000800000000000000004302000825
:10014000430200084302000843020008B9480008BF
:10015000430200084302000843020008430200086B
:10016000430200084302000843020008430200085B
:1001700043020008430200080000000000000000E5
:10018000430200084302000800F002F800F03CF8C7
:100190000AA090E8000C82448344AAF10107DA45E2
:1001A00001D100F031F8AFF2090EBAE80F0013F0F8
:1001B000010F18BFFB1A43F001031847C0B9000034
:1001C000E0B90000103A24BF78C878C1FAD85207C5
:1001D00024BF30C830C144BF04680C6070470000C1
:1001E0000023002400250026103A28BF78C1FBD840
:1001F000520728BF30C148BF0B6070471FB50BF0D6
:1002000061FC1FBD10B510BD00F04FF91146FFF79E
:10021000F5FF08F01FFE00F06DF903B4FFF7F2FFE1
:1002200003BC00F075F90000094880470948004701
:10023000FEE7FEE7FEE7FEE7FEE7FEE7FEE7FEE796
:10024000FEE7FEE704480549054A064B70470000F3
:100250001D4E00088901000878690020786F002091
:10026000786B0020786B002053EA020C00F0698064
:100270002DE9F04B4FF00006002B1FBFB3FA83F5BA
:1002800003FA05F424FA05F65E4012BF1643B2FAEB
:1002900082F502FA05F4C5F120051EBF22FA05FC1D
:1002A00044EA0C04203556EA044C4FEA144418BFC3
:1002B000641C4FF000084FF00009904271EB030CF2
:1002C00039D3002919BFB1FA81F701FA07F6B0FA5C
:1002D00080F700FA07F6C7F120071EBF20FA07FCD7
:1002E00046EA0C062037B6FBF4FCA7EB0507103FE7
:1002F00007F01F0BCBF120062CFA06F60CFA0BFBCD
:1003000044BFB3460026202FA4BF5E464FF0000B2B
:100310005BEA060C08BF4FF0010B19EB0B0948EB29
:100320000608ABFB027C06FB02CC0BFB03CCC01B1C
:1003300071EB0C01C1E70B46024641464846BDE859
:10034000F08B13B5084318BF4FF0FF300146AFF3F1
:100350000080BDE81C407047032A40F2308010F056
:10036000030C00F0158011F8013BBCF1020F624450
:1003700098BF11F801CB00F8013B38BF11F8013BE1
:10038000A2F1040298BF00F801CB38BF00F8013B8E
:1003900011F0030300F05780083AC0F0088051F8CC
:1003A000043B083A51F804CBA0E80810F5E7121D09
:1003B0005CBF51F8043B40F8043BAFF30080D20728
:1003C00024BF11F8013B11F801CB48BF11F8012BF4
:1003D00024BF00F8013B00F801CB48BF00F8012B17
:1003E000704702F0FF0343EA032242EA024200F0B0
:1003F00002B84FF0000200B51346944696462039E5
:1004000022BFA0E80C50A0E80C50B1F12001BFF4CD
:10041000F7AF090728BFA0E80C5048BF0CC05DF833
:1004200004EB890028BF40F8042B08BF704748BF81
:1004300020F8022B11F0804F18BF00F8012B7047F5
:1004400070477047704710B5203AC0F00B80B1E894
:100450001850A0E81850B1E81850A0E81850203AF9
:10046000BFF4F5AF5FEA027C24BFB1E81850A0E802
:10047000185044BF18C918C0BDE810405FEA827C1C
:1004800024BF51F8043B40F8043B08BF7047D20733
:1004900028BF31F8023B48BF11F8012B28BF20F8D4
:1004A000023B48BF00F8012B7047754600F02CF85E
:1004B000AE4605006946534620F00700854618B051
:1004C00020B5FFF7BFFEBDE820404FF000064FF01B
:1004D00000074FF000084FF0000BAC46ACE8C00935
:1004E000ACE8C009ACE8C009ACE8C00921F00701DC
:1004F0008D46704710B50446AFF300802046BDE836
:100500001040FFF78ABE000000487047000100203D
:1005100001491820ABBEFEE726000200704700002C
:1005200082B0019042F20030C4F2010000900099C4
:10053000486820F440304860019842680099486853
:100540001043486001980168486820F48070486052
:10055000019801680269486840EA022048600198F1
:100560000168486820F0407048600198016882681E
:1005700048681043486001980168886820F400606A
:10058000886001980168C268886810438860019893
:10059000806A0121C0F60071884219D0FFE70198F6
:1005A0000168886820F07060886001980168826A3C
:1005B00088681043886001980168886820F040507E
:1005C000886001980168C26A8868104388600CE0FE
:1005D00001980168886820F070608860019801685F
:1005E000886820F040508860FFE7019801688868BB
:1005F00020F0020088600198027E0168886840EA65
:1006000042008860019890F82000C8B1FFE7019887
:100610000168486840F400604860019801684868D3
:1006200020F46040486001980168426A4EF2000080
:10063000CFF6FF7000EB423248681043486006E096
:1006400001980168486820F400604860FFE701985D
:100650000168C86A20F47000C86201980168C26924
:100660000020CFF6F07000EB0252C86A1043C86257
:1006700001980168886820F400708860019890F8FB
:1006800030200168886840EA42208860019801684B
:10069000886820F4806088600198016842698868F1
:1006A00040EA8220886002B070470000FFE7FEE762
:1006B00084B08DF80F000291ADF806209DF80F0070
:1006C0000146009123281DD80099DFE801F012139C
:1006D0001415161B1B1B1B1B1B1B1B1B1B1B1B1B7C
:1006E0001B1B1B1B1B1B1B1B1B1B1B1B1B1B171861
:1006F000191A08E007E006E005E004E003E002E084
:1007000001E000E0FFE7002004B0704700207047E0
:1007100080B582B041F28C50C2F20000009040F6E9
:100720008851C2F200010022019205F05BFA0098A4
:1007300040F28851C2F2000105F036FA019802B089
:1007400080BD000080B584B003900291039941F20E
:100750008C50C2F20000019005F026FA019805F0D5
:10076000C9F9002004B080BD83B0029001918DF8DA
:10077000032000208DF802009DF9020003B07047AD
:100780007047000072B6FFE7FEE7000080B584B056
:1007900047F61020C1F6FF700068039047F614205A
:1007A000C1F6FF700068029047F61820C1F6FF708E
:1007B000006801900199039808440390039888B158
:1007C000FFE7039840F2D801C2F200010091023124
:1007D000082203F037FD009902981231042203F039
:1007E00031FDFFE704B080BD85B003900291002089
:1007F0000190FFE7039890F83C00012804D1FFE73F
:1008000002208DF81300F7E00399012081F83C00E5
:10081000FFE7FFE7029800680A281CD3FFE7029869
:10082000008800EB4000A0F11E01072000FA01F251
:1008300003980168C8689043C8600299886809886D
:1008400001EB41011E3900FA01F203980168C86802
:100850001043C86018E00298008800EB40010720B0
:1008600000FA01F20398016808699043086102994F
:100870008868098801EB410100FA01F203980168D8
:10088000086910430861FFE70298406806281BD8F2
:10089000FFE70298406800EB8000411F1F2000FA2C
:1008A00001F203980168486B9043486302990888F5
:1008B000496801EB8101053900FA01F203980168EA
:1008C000486B104348633DE0029840680C281CD8F0
:1008D000FFE70298406800EB8000A0F123011F2091
:1008E00000FA01F203980168086B904308630299CB
:1008F0000888496801EB8101233900FA01F2039865
:100900000168086B104308631BE00298406800EB25
:100910008000A0F141011F2000FA01F20398016854
:10092000C86A9043C86202990888496801EB81014E
:10093000413900FA01F203980168C86A1043C8629D
:10094000FFE7FFE742F20030C4F201000090039895
:10095000006842F20001C4F2010188420BD1FFE7B6
:1009600002980068122806D1FFE70099486840F411
:1009700080004860FFE70398006842F20001C4F27B
:10098000010188422ED1FFE702980068102805D0A7
:10099000FFE702980068112824D1FFE70099486812
:1009A00040F40000486002980068102819D1FFE761
:1009B00040F22000C2F2000000684DF68361C4F2EC
:1009C0001B31A0FB0110800C00EB80004000019067
:1009D000FFE7019820B1FFE7019801380190F8E79F
:1009E000FFE7FFE7FFE70399002081F83C00FFE7FE
:1009F00000208DF81300FFE79DF8130005B0704745
:100A000080B584B0029000208DF80700029820B9CC
:100A1000FFE701208DF80F0042E00298806A012173
:100A2000C0F60071884201D0FFE7FFE70298006C32
:100A300050B9FFE7029800F037F8029900204864A7
:100A4000029981F83C00FFE70298006CC00600287C
:100A500017D4FFE70298006C40F0020020F48850A1
:100A6000029908640298FFF75BFD02990020486430
:100A70000298006C40F0010020F002000299086426
:100A800003E001208DF80700FFE7FFE7029900204F
:100A900081F83C00FFE79DF807008DF80F00FFE7A5
:100AA0009DF80F0004B080BD80B58AB00990002089
:100AB000089007900690059004900998006842F20B
:100AC0000001C4F2010188422FD1FFE7FFE70020B7
:100AD000039043F64400C4F20200016841F48071BF
:100AE0000160006800F4807003900398FFE7FFE75F
:100AF0000020029043F63000C4F20200016841F089
:100B000001010160006800F0010002900298FFE717
:100B10000F20049003200590002006900020C4F2CE
:100B2000020004A900F098F938E00998006842F240
:100B30000011C4F2010188422FD1FFE7FFE7002036
:100B4000019043F64400C4F20200016841F40071D0
:100B50000160006800F4007001900198FFE7FFE772
:100B60000020009043F63000C4F20200016841F01A
:100B700001010160006800F0010000900098FFE7AB
:100B80002020049003200590002006900020C4F24D
:100B9000020004A900F060F9FFE7FFE70AB080BD9A
:100BA00080B584B00290029820B9FFE701208DF84B
:100BB0000F00E0E0029890F8200020B9FFE70298CB
:100BC00000F0DEF8FFE702980168086840F00100D5
:100BD000086000F035FB0190FFE70298006840686C
:100BE000C007A8B9FFE700F02BFB0199401A0B28BA
:100BF0000DD3FFE70299486A40F400304862029939
:100C0000052081F8200001208DF80F00B3E0E4E713
:100C100002980168086820F00200086000F010FBEC
:100C20000190FFE70298006840688007002815D50A
:100C3000FFE700F005FB0199401A0B280DD3FFE7F1
:100C40000299486A40F4003048620299052081F810
:100C5000200001208DF80F008DE0E3E70298007E70
:100C6000012807D1FFE702980168086840F080007A
:100C7000086006E002980168086820F080000860BB
:100C8000FFE70298407E012807D1FFE7029801683C
:100C9000086840F04000086006E0029801680868B3
:100CA00020F040000860FFE70298807E012807D10D
:100CB000FFE702980168086840F02000086006E03D
:100CC00002980168086820F020000860FFE7029899
:100CD000C07E012807D1FFE702980168086820F06C
:100CE0001000086006E002980168086840F01000F3
:100CF0000860FFE70298007F012807D1FFE702980C
:100D00000168086840F00800086006E00298016881
:100D1000086820F008000860FFE70298407F01287B
:100D200007D1FFE702980168086840F004000860F6
:100D300006E002980168086820F004000860FFE7F8
:100D4000029B19685A689868D3F80CC040EA0C00F6
:100D5000D3F810C040EA0C005B691843013A104315
:100D6000C861029900204862029A012182F820108D
:100D70008DF80F00FFE79DF80F0004B080BD000064
:100D800080B588B0079000200690059004900390ED
:100D900002900798006846F20041C4F200018842C0
:100DA00035D1FFE7FFE70020019043F64000C4F291
:100DB0000200016841F000710160006800F00070FD
:100DC00001900198FFE7FFE70020009043F6300014
:100DD000C4F20200016841F002010160006800F005
:100DE000020000900098FFE74FF44070029002204C
:100DF000039000200490032005900920069040F203
:100E00000040C4F2020002A900F026F8FFE708B093
:100E100080BD000080B584B0039000F011FA02900C
:100E2000039801900198013048B1FFE740F2F200C9
:100E3000C2F200000178019808440190FFE7FFE743
:100E400000F0FEF90299401A0199884201D2FFE7A9
:100E5000F6E704B080BD00008EB00D900C9100202C
:100E60000A90099008900B90FFE70B980F2800F26A
:100E7000CC81FFE70B99012088400A900C9800680C
:100E80000A990840099009980A99884240F0B88167
:100E9000FFE70C98406800F00300012807D0FFE747
:100EA0000C98406800F0030002282FD1FFE70D984E
:100EB000806808900B984100032000FA01F108981F
:100EC000884308900C98C0680B99490000FA01F11A
:100ED00008980843089008980D9988600D98406814
:100EE00008900B99012000FA01F1089888430890B6
:100EF0000C984068C0F300100B9900FA01F10898B3
:100F00000843089008980D994860FFE70C984068DE
:100F100000F00300032818D0FFE70D98C068089080
:100F20000B984100032000FA01F1089888430890CB
:100F30000C9880680B99490000FA01F10898084361
:100F4000089008980D99C860FFE70C98406800F079
:100F50000300022826D1FFE70D980B996FF00302DA
:100F600002EA51010844006A08900B9800F007005B
:100F700081000F2000FA01F10898884308900C982E
:100F800000690B9901F00701890000FA01F1089846
:100F90000843089008980D990B9B02EA53021144EC
:100FA0000862FFE70D98006808900B984100032045
:100FB00000FA01F10898884308900C98406800F006
:100FC00003000B99490000FA01F1089808430890C2
:100FD00008980D9908600C9880798007002800F027
:100FE0000E81FFE7FFE70020079043F64400C4F2BC
:100FF0000200016841F480410160006800F4804013
:1010000007900798FFE70B9820F0030043F60801CC
:10101000C4F20101405808900B9800F003008100D1
:101020000F2000FA01F10898884308900D980021DC
:10103000C4F20201884203D1FFE7002006905EE07F
:101040000D9840F20041C4F20201884203D1FFE74B
:101050000120059050E00D9840F60001C4F2020115
:10106000884203D1FFE70220049042E00D9840F649
:101070000041C4F20201884203D1FFE7032003903C
:1010800034E00D9841F20001C4F20201884203D11C
:10109000FFE70420029026E00D9841F20041C4F2DF
:1010A0000201884203D1FFE70520019018E00D9866
:1010B00041F60001C4F20201884203D1FFE7062095
:1010C00000900AE00D9941F60042C4F202020820A5
:1010D000914208BF07200090FFE700980190FFE7CA
:1010E00001980290FFE702980390FFE703980490AD
:1010F000FFE704980590FFE705980690FFE706983C
:10110000C0B20B9901F00301890000FA01F10898BF
:101110000843089008980B9921F0030143F6080250
:10112000C4F20102885043F60840C4F2010000688E
:10113000089009990898884308900C988079C0060F
:10114000002805D5FFE70999089808430890FFE7AC
:10115000089843F60841C4F20101086043F60C40C8
:10116000C4F2010000680890099908988843089023
:101170000C9880798006002805D5FFE70999089822
:1011800008430890FFE7089843F60C41C4F20101B8
:10119000086043F60440C4F2010000680890099911
:1011A0000898884308900C9880798007002805D516
:1011B000FFE70999089808430890FFE7089843F665
:1011C0000441C4F20101086043F60040C4F201008A
:1011D0000068089009990898884308900C988079CD
:1011E000C00728B1FFE70999089808430890FFE76E
:1011F000089843F60041C4F201010860FFE7FFE7E9
:10120000FFE70B9801300B902FE60EB070470000FF
:1012100082B00190ADF802108DF801209DF8010018
:1012200028B1FFE7BDF802000199886105E0BDF82B
:101230000200000401998861FFE702B070470000D6
:1012400046F29C10C2F200000068704780B58EB074
:101250000C900C9820B9FFE701208DF8370043E18E
:101260000C9890F83D0040B9FFE70C99002081F8F8
:101270003C000C9800F03CF9FFE70C99242081F821
:101280003D000C980168086820F0010008600C9887
:101290000168086840F4004008600C98016808681C
:1012A00020F40040086001F031FD0A900C9840687D
:1012B00048F2A061C0F2010188420BD8FFE70A9909
:1012C00048F28042C0F21E020020914238BF012045
:1012D00009900AE00A9940F60012C0F23D0200208F
:1012E000914238BF01200990FFE70998012804D1F5
:1012F000FFE701208DF83700F6E00A984DF683618C
:10130000C4F21B31A0FB0110800C0B900C980068FC
:10131000406820F03F000B9908430C990968486029
:101320000C980068006A20F03F0008900C98406814
:1013300048F2A061C0F20101884204D8FFE70B988F
:10134000013007900EE00B984FF49671484344F635
:10135000D351C1F26201A0FB0101012000EB911009
:101360000790FFE70898079908430C9909680862F5
:101370000C980068C0694CF6FF71884306900C9881
:10138000406848F2A061C0F2010188421FD8FFE71F
:101390000A9801380C9949684900B0FBF1F0013016
:1013A0006FF31F30032803D8FFE7042005900BE0FC
:1013B0000A9801380C9949684900B0FBF1F00130F6
:1013C0006FF31F300590FFE7059804904CE00C98F0
:1013D000806868B9FFE70A9801380C99496801EB01
:1013E0004101B0FBF1F001306FF31F3003900DE0CD
:1013F0000A9801380C99496819225143B0FBF1F061
:101400000130042161F31F300390FFE703980005CA
:1014100018B9FFE70120029023E00C98806868B9B2
:10142000FFE70A9801380C99496801EB4101B0FBCC
:10143000F1F001306FF31F3001900DE00A98013890
:101440000C99496819225143B0FBF1F00130042195
:1014500061F31F300190FFE7019840F400400290D3
:10146000FFE702980490FFE70698049908430C9957
:101470000968C8610C980068006820F0C0000C9BE7
:101480001968DA691B6A1A43104308600C980068EF
:10149000806848F2FF3188430C9A1168D36812695A
:1014A0001A43104388600C980068C06820F0FF0061
:1014B0000C9B19685A699B691A431043C8600C98C1
:1014C0000168086840F0010008600C990020086479
:1014D0000C9A202182F83D100C9908630C9981F830
:1014E0003E008DF83700FFE79DF837000EB080BD55
:1014F00080B588B007900020069005900490039076
:1015000002900798006845F60001C4F20001884285
:1015100035D1FFE7FFE70020019043F63000C4F229
:101520000200016841F002010160006800F0020061
:1015300001900198FFE74FF4406002901220039061
:1015400000200490032005900420069040F2004003
:10155000C4F2020002A9FFF77FFCFFE70020009021
:1015600043F64000C4F20200016841F480010160CA
:10157000006800F4800000900098FFE7FFE708B0E3
:1015800080BD000040F2F200C2F20000027846F294
:101590009C11C2F200010868104408607047000006
:1015A00080B543F60041C4F20201086840F40070BF
:1015B0000860086840F480600860086840F4807043
:1015C0000860032000F0C6F80F2000F005F800F0D6
:1015D00071F8002080BD000080B58CB00B90002019
:1015E00005900490FFE70020019043F64400C4F208
:1015F0000200016841F480210160006800F480204D
:1016000001900198FFE706A803A901F04FFB01F044
:101610008FFB4000059005984DF68361C4F21B31A5
:10162000A0FB01014FF0FF3000EB9140049041F628
:101630005070C2F2000044F60001C4F201010160E2
:1016400040F2E731C160049941600021016181608D
:10165000816102F0A3F98DF80B009DF80B0028BB07
:10166000FFE741F65070C2F2000002F0E9F98DF890
:101670000B009DF80B00C0B9FFE71A2000F046F8F8
:101680000B980F280CD8FFE70B991A20002200F0C6
:1016900047F80B9840F2F401C2F20001086003E041
:1016A00001208DF80B00FFE7FFE7FFE79DF80B0037
:1016B0000CB080BD80B582B0FFE70020019043F6FA
:1016C0004400C4F20200016841F4804101600068F6
:1016D00000F4804001900198FFE7FFE700200090B0
:1016E00043F64000C4F20200016841F080510160FD
:1016F000006800F0805000900098FFE76FF0010054
:101700000F21002200F00CF802B080BD80B582B03D
:101710008DF807009DF9070007F01AFB02B080BDA5
:1017200080B586B08DF817000491039200200290D6
:1017300007F026FB02909DF917000190029804998A
:10174000039A03F083F80146019807F021FB06B0E5
:1017500080BD000080B582B00190019807F05CFB6D
:1017600002B080BD82B001908DF8031002B07047C6
:1017700082B00190ADF80210BDF80200019909682D
:101780004862002002B0704784B003908DF80B10BF
:10179000ADF8082003980068406A00909DF80B009F
:1017A00048B9FFE7BDF80810009840EA01400399E6
:1017B0000968886233E003980068816A009800EB4A
:1017C0001140009000208DF80700FFE79DF807000A
:1017D0009DF80B100139884213D2FFE70398006887
:1017E0009DF8071000EB8100D0F80411009800EB81
:1017F00011400090FFE79DF8070001308DF80700C9
:10180000E4E7BDF80810009840EA01400399096830
:101810009DF80B2001EB8201C1F80001FFE70020D9
:1018200004B0704780B582B001900198D0F8E00410
:1018300005F042F902B080BD80B582B001908DF80C
:101840000310019AD2F8E0049DF8031001EBC103E4
:1018500002EB8302126A04F08DFF02B080BD00002B
:1018600080B582B001908DF80310019AD2F8E0049F
:101870009DF8031001EBC10302EB8302D2F8602252
:1018800005F040F802B080BD80B582B001900198AB
:10189000D0F8E00405F016F902B080BD80B584B040
:1018A00003908DF80B109DF80B00000600280CD556
:1018B000FFE703989DF80B1001F00F0101EBC10148
:1018C00000EB8100143001900CE003989DF80B10A0
:1018D00001F00F0101EBC10100EB810000F5157073
:1018E0000190FFE703980068019906F067FE8DF804
:1018F0000A009DF80A0004B080BD000080B584B0E5
:1019000002908DF807109DF80700000600280FD5FB
:10191000FFE702989DF8071001F00F0101EBC101EC
:1019200000EB8100143000900099012048700FE016
:1019300002989DF8071001F00F0101EBC10100EBC7
:10194000810000F515700090009900204870FFE7B5
:101950009DF8070000F00F0000990870FFE702985B
:1019600090F89404012804D1FFE702208DF80F00BD
:1019700014E00299012081F89404FFE7FFE7029840
:101980000068009906F00AF9FFE70299002081F843
:101990009404FFE700208DF80F00FFE79DF80F008B
:1019A00004B080BD80B584B002908DF807109DF81A
:1019B000070000F00F0002990979884204D9FFE777
:1019C00001208DF80F004DE09DF80700000600286B
:1019D0000FD5FFE702989DF8071001F00F0101EB0A
:1019E000C10100EB81001430009000990120487083
:1019F0000FE002989DF8071001F00F0101EBC10103
:101A000000EB810000F515700090009900204870EF
:101A1000FFE70099002088709DF8070000F00F0094
:101A200000990870FFE7029890F89404012804D107
:101A3000FFE702208DF80F0014E00299012081F8E1
:101A40009404FFE7FFE702980068009906F016FB90
:101A5000FFE70299002081F89404FFE700208DF849
:101A60000F00FFE79DF80F0004B080BD82B0019029
:101A70008DF8031001989DF8031001F00F0101EBA0
:101A8000C10100EB8100D0F8680202B0704700008D
:101A900080B586B004908DF80F10ADF80C208DF84D
:101AA0000B3000208DF80A009DF80F00000600287A
:101AB0000FD5FFE704989DF80F1001F00F0101EB1F
:101AC000C10100EB810014300190019901204870A0
:101AD0000FE004989DF80F1001F00F0101EBC10118
:101AE00000EB810000F5157001900199002048700D
:101AF000FFE79DF80F0000F00F0001990870BDF896
:101B00000C006FF3DF20019988609DF80B000199AC
:101B100008710198407820B1FFE70199087848835F
:101B2000FFE79DF80B00022804D1FFE70199002090
:101B30004871FFE7FFE7049890F89404012804D166
:101B4000FFE702208DF8170015E00499012081F8C5
:101B50009404FFE7FFE704980068019905F0F0FEA0
:101B6000FFE70499002081F89404FFE79DF80A003C
:101B70008DF81700FFE79DF8170006B080BD000044
:101B800080B586B005908DF81310039202930598E6
:101B90009DF8131001F00F0101EBC10100EB810072
:101BA00000F51570019003980199C8600298019999
:101BB0000861019900204861019948709DF813005F
:101BC00000F00F000199087005988079012804D170
:101BD000FFE703980199C861FFE7059A106801992A
:101BE000927906F0EFFA002006B080BD80B584B08F
:101BF00002908DF807109DF8070000F00F00029981
:101C00000979884204D9FFE701208DF80F0058E0D8
:101C10009DF80700000600280FD5FFE702989DF801
:101C2000071001F00F0101EBC10100EB810014303E
:101C300000900099012048700DE002989DF807106F
:101C400001EBC10100EB810000F5157000900099D7
:101C500000204870FFE70099012088709DF8070078
:101C600000F00F0000990870FFE7029890F89404C4
:101C7000012804D1FFE702208DF80F0021E002992E
:101C8000012081F89404FFE7FFE7029800680099BB
:101C900006F044FA9DF80700000740B9FFE7029AF2
:101CA0001068917902F29C4206F098F9FFE7FFE78D
:101CB0000299002081F89404FFE700208DF80F00BE
:101CC000FFE79DF80F0004B080BD000080B586B02E
:101CD00005908DF813100392029305989DF8131048
:101CE00001F00F0101EBC10100EB81001430019004
:101CF00003980199C8600298019908610199002030
:101D000048610199012048709DF8130000F00F0010
:101D10000199087005988079012804D1FFE703989C
:101D20000199C861FFE7059A10680199927906F058
:101D300049FA002006B080BD80B58CB00B900B989E
:101D400000680A900A9809900B98006806F06CFDEC
:101D5000002840F00B84FFE70B98006806F0D0FDE8
:101D600010B9FFE700F002BC0998D0F80808C0F3EA
:101D70000D200B99C1F8D4040B98006806F0C0FD43
:101D80008007002807D5FFE70B980168486900F035
:101D900002004861FFE70B98006806F0B1FDC0063D
:101DA000002862D5FFE70B980168886920F01000D1
:101DB00088610A98006A02900B98029901F00F015D
:101DC00001EBC10100EB810000F51570089002984D
:101DD00000F4F0110220B0EB514F23D1FFE7BDF822
:101DE000080047F6F07108421BD0FFE70A980899EF
:101DF000C968029AC2F30A1206F090FD029847F6EB
:101E0000F07100EA0103089AD06800EB1310D0606B
:101E1000029800EA01020899486900EB1210486133
:101E2000FFE71BE0029800F4F0110620B0EB514FE1
:101E300012D1FFE70A980B9901F29C41082206F0A3
:101E40006DFD029847F6F07100EA010208994869B1
:101E500000EB1210486100E0FFE7FFE70B98016814
:101E6000886940F010008861FFE70B98006806F071
:101E700047FD0003002840F1A680FFE70020049002
:101E80000B98006806F0EAFC0690FFE70698002829
:101E900000F09880FFE79DF81800C007002800F0C8
:101EA0008A80FFE70B9800689DF8101006F010FD7F
:101EB00005909DF81400C00760B1FFE709980499E8
:101EC00000EB41110120C1F8080B0B98049902F0B6
:101ED00041FDFFE79DF81400000700280CD5FFE73F
:101EE0000998049900EB41110820C1F8080B0B98E0
:101EF000049902F0E9FCFFE79DF81400C0060028F1
:101F000008D5FFE70998049900EB41111020C1F8AA
:101F1000080BFFE79DF81400800700282DD5FFE788
:101F20000A9840690006002808D5FFE70999D1F80A
:101F3000040840F48060C1F80408FFE70B98049996
:101F400001EBC10100EB810000F5157008900898C5
:101F5000C078012809D1FFE708990020C8700B98C4
:101F60009DF8101000F012FBFFE70998049900EBB0
:101F700041110220C1F8080BFFE79DF8140080060C
:101F8000002808D5FFE70998049900EB41112020AB
:101F9000C1F8080BFFE79DF815008006002809D559
:101FA000FFE70998049900EB41114FF40050C1F884
:101FB000080BFFE7FFE704980130049006984008FB
:101FC000069063E7FFE70B98006806F099FC400372
:101FD000002840F1C680FFE70B98006806F02CFC53
:101FE000069000200490FFE70698002800F0B880D3
:101FF000FFE79DF81800C007002800F0AA80FFE75F
:102000000B9800689DF8101006F03AFC05909DF8BA
:102010001400C00700283ED0FFE7049800F00F012D
:10202000012000FA01F10391039B099AD2F83418B8
:102030009943C2F834180999049A01EB4211C1F886
:1020400008090B98807901281FD1FFE70B980499A4
:1020500001EBC10100EB8101CA69086A1044086202
:10206000049888B9FFE70B98049901EBC10100EBD4
:102070008100406A40B9FFE70B99086801F29C4271
:10208000012105F0ABFFFFE7FFE70B989DF810106B
:10209000FFF7D2FBFFE79DF814000007002808D5E2
:1020A000FFE70998049900EB41110820C1F80809DD
:1020B000FFE79DF81400C006002808D5FFE709983F
:1020C000049900EB41111020C1F80809FFE79DF8C1
:1020D00014004006002808D5FFE70998049900EB92
:1020E00041114020C1F80809FFE79DF8140080075E
:1020F000002822D5FFE70A98049906F031FB0B98D7
:10210000049901EBC10100EB81001430089008989C
:10211000C078012809D1FFE708990020C8700B9802
:102120009DF8101000F024FAFFE70998049900EBDD
:1021300041110220C1F80809FFE79DF814000006CC
:10214000002805D5FFE70B98049902F0E7FCFFE7AC
:10215000FFE704980130049006984008069043E792
:10216000FFE70B98006806F0CBFBC00F00B3FFE75A
:102170000999D1F8040820F00100C1F804080B986F
:1021800090F8CC04012808D1FFE70B98002180F8D3
:10219000CC140B98FFF7E6FA03E00B9800F0A8FBCD
:1021A000FFE70B980168486900F000404861FFE7CD
:1021B0000B98006806F0A4FB0005002811D5FFE786
:1021C0000998D0F80808C00720B1FFE70B9800F085
:1021D0001BFCFFE70B980168486900F40060486148
:1021E000FFE70B98006806F08BFBC004002840F165
:1021F0008680FFE70999D1F8040820F00100C1F8B2
:1022000004080B980068102106F0AAFA0020079035
:10221000FFE707980B990979884231D2FFE70998BF
:10222000079900EB41114FF67F30C1F80809099971
:10223000079A01EB4212D2F8001921F40011C2F8FA
:1022400000190999079A01EB4211C1F8080B099886
:10225000079900EB4111D1F8000B20F40010C1F8F0
:10226000000B0998079900EB4111D1F8000B40F0E1
:102270000060C1F8000BFFE7079801300790C8E73E
:102280000999D1F81C0840F00110C1F81C080B98FE
:10229000C07B78B1FFE70999D1F8840840F00B00C2
:1022A000C1F884080999D1F8440840F00B00C1F83E
:1022B00044080FE00999D1F8140842F22B021043A8
:1022C000C1F814080999D1F8100840F00B00C1F8C2
:1022D0001008FFE70999D1F8000820F4FE60C1F862
:1022E00000080B9A1068917902F29C4205F076FE84
:1022F0000B980168486900F480504861FFE70B982B
:10230000006806F0FDFA800400281FD5FFE70B984F
:10231000006805F085FB0B98006806F05FFA0B99E2
:10232000C8710B980068019000F0EAFC0146019822
:102330000B9AD27906F0EAFB0B9800F0AFFA0B98F3
:102340000168486900F400504861FFE70B98006895
:1023500006F0D6FA000700280AD5FFE70B9800F030
:10236000D1FA0B980168486900F008004861FFE75E
:102370000B98006806F0C4FA0006002825D5FFE790
:102380000A99886920F08000886101200490FFE7A5
:1023900004980B990979884216D2FFE70B980499A3
:1023A00001EBC10100EB810090F85702012806D132
:1023B000FFE70B989DF81010FFF770FAFFE7FFE7B3
:1023C000049801300490E3E7FFE70B98006806F0FB
:1023D00097FAC00200283CD5FFE701200490FFE7F0
:1023E00004980B99097988422CD2FFE7099804993F
:1023F00000EB4110D0F8000902900B98049901EB12
:10240000C10100EB8100007E012816D1FFE79DF895
:102410000B000006002810D5FFE70B98049901EB8C
:10242000C10100EB81010120C8750B989DF81010C7
:1024300041F08001FFF732FAFFE7FFE7049801302F
:102440000490CDE70B980168486900F4801048615A
:10245000FFE70B98006806F053FA8002002855D574
:10246000FFE701200490FFE704980B99097988425F
:1024700045D2FFE70998049900EB4110D0F8000B12
:1024800002900B98049901EBC10100EB810090F8D8
:10249000580201282ED1FFE79DF80B000006002806
:1024A00028D5FFE7029800F480300B99D1F8D414B6
:1024B00001F0010188421DD1FFE70B98049901EB5F
:1024C000C10100EB8101012081F857020A99886956
:1024D00040F0800088610A9840690006002808D40E
:1024E000FFE70999D1F8040840F40070C1F8040826
:1024F00005E0FFE7FFE7049801300490B4E70B988C
:102500000168486900F400104861FFE70B98006813
:1025100006F0F6F9400000280AD5FFE70B98FFF710
:1025200081F90B980168486900F080404861FFE735
:102530000B98006806F0E4F94007002815D5FFE77E
:102540000B980068406802909DF80800400700283A
:1025500004D5FFE70B98FFF797F9FFE7029A0B986E
:102560000168486810434860FFE7FFE70CB080BD92
:1025700080B582B001908DF803100198D0F8E00486
:102580009DF8031004F03AFB02B080BD80B582B024
:1025900001908DF803100198D0F8E0049DF8031025
:1025A00004F064FB02B080BD80B58EB00C900C9836
:1025B00020B9FFE701208DF8370012E10C98006880
:1025C0000B900C9890F8950440B9FFE70C99002007
:1025D00081F894040C9800F009F9FFE70C990320A6
:1025E00081F895040B98B0F1A04F04D1FFE70C9946
:1025F00000208871FFE70C98006805F0E5FC0C9B53
:102600001868197C8DF8241059689A68DB6808935B
:10261000079206910699079A089BDDF824C0EE46BA
:10262000CEF800C005F012FA40B1FFE70C99022085
:1026300081F8950401208DF83700D2E00C980068ED
:10264000002106F0C5F940B1FFE70C99022081F89E
:10265000950401208DF83700C3E000208DF82B0091
:10266000FFE79DF82B000C990979884241DAFFE7D2
:102670000C989DF82B1001EBC10100EB81010120AA
:1026800048759DF82B000C9900EBC00201EB82010C
:1026900008759DF82B000C9900EBC00201EB82013C
:1026A000C8850C989DF82B1001EBC10100EB81014E
:1026B000002008760C999DF82B2002EBC20201EB5A
:1026C0008201C8610C999DF82B2002EBC20201EB3C
:1026D000820108620C999DF82B2002EBC20201EBEB
:1026E00082014862FFE79DF82B0001308DF82B0036
:1026F000B7E700208DF82B00FFE79DF82B000C9921
:10270000097988423EDAFFE70C989DF82B1001EB1F
:10271000C10100EB8101002081F855029DF82B10CA
:102720000C9A01EBC10302EB830282F854120C995C
:102730009DF82B2002EBC20201EB820181F85802C6
:102740000C999DF82B2002EBC20201EB8201C1F82B
:102750005C020C999DF82B2002EBC20201EB820176
:10276000C1F860020C999DF82B2002EBC20201EB2C
:102770008201C1F86402FFE79DF82B0001308DF85B
:102780002B00BAE70C9B1868197C8DF81410596857
:102790009A68DB680493039202910299039A049B5E
:1027A000DDF814C0EE46CEF800C005F0BFFA40B127
:1027B000FFE70C99022081F8950401208DF837007D
:1027C0000FE00C990020019048740C99012081F8C9
:1027D00095040C98006805F093FA01988DF837007D
:1027E000FFE79DF837000EB080BD000080B58AB0CD
:1027F0000990002008900790069005900490099891
:102800000068B0F1A04F47D1FFE7FFE70020039039
:1028100043F63000C4F20200016841F0010101609A
:10282000006800F0010003900398FFE74FF4C050E8
:1028300004900220059000200690032007900A20B3
:1028400008900020C4F2020004A9FEF705FBFFE790
:1028500043F63401C4F20201086840F080000860C9
:10286000FFE70020029043F64400C4F20200016832
:1028700041F480410160006800F4804002900298B9
:10288000FFE7FFE74320019005210022FEF748FF04
:102890000198FEF73BFFFFE70AB080BD80B582B02C
:1028A000019001208DF803000198C07920B9FFE75D
:1028B00000208DF803000CE00198C079022804D1B3
:1028C000FFE701208DF8030002E0FDF75BFFFFE763
:1028D000FFE70198D0F8E0049DF8031004F0C6FA71
:1028E0000198D0F8E00404F041FA02B080BD000085
:1028F00080B582B001900198D0F8E00404F084FA29
:1029000002B080BD80B582B001900198D0F8E0049B
:1029100004F08CFA02B080BD80B584B002908DF8CE
:102920000710FFE7029890F89404012804D1FFE70C
:1029300002208DF80F0019E00299012081F894041B
:10294000FFE7FFE79DF807000299487402980068C6
:102950009DF8071006F0ACF8FFE70299002081F817
:102960009404FFE700208DF80F00FFE79DF80F00AB
:1029700004B080BD80B582B001900199D1F8E00427
:1029800001F29C4104F09CFA02B080BD80B584B095
:102990000290029800680190FFE7029890F8940472
:1029A000012804D1FFE702208DF80F0028E00299EA
:1029B000012081F89404FFE7FFE70198C068400612
:1029C00000280BD5FFE70298407B012806D1FFE7DE
:1029D0000199886B40F480308863FFE702980068B3
:1029E00005F07AFE0298006805F074F9FFE7029995
:1029F000002081F89404FFE700208DF80F00FFE726
:102A00009DF80F0004B080BD80B582B001900198A0
:102A1000D0F8E00404F0D6FA01980168D1F8000E6D
:102A200040F00100C1F8000E0198C07A48B1FFE7FC
:102A30004EF61051CEF20001086840F00600086022
:102A4000FFE702B080BD000080B584B00290019124
:102A5000029820B9FFE701208DF80F0021E10198CD
:102A600043F60041C4F20201096801F007018842FF
:102A700012D9FFE7019943F60040C4F20200017049
:102A8000006800F007000199884204D0FFE70120A8
:102A90008DF80F0005E1FFE7029800788007002815
:102AA0002AD5FFE7029800784007002809D5FFE7FC
:102AB00043F60801C4F20201086840F4E0500860DF
:102AC000FFE7029800780007002809D5FFE743F6E2
:102AD0000801C4F20201086840F460400860FFE7A2
:102AE00043F60801C4F20201086820F0F000029ADF
:102AF000926810430860FFE702980078C00700283A
:102B00006ED0FFE702984068012811D1FFE743F635
:102B10000000C4F20200006800F400310020B0EBB5
:102B2000514F04D1FFE701208DF80F00B9E02CE0F0
:102B300002984068022805D0FFE702984068032801
:102B400011D1FFE743F60000C4F20200006800F074
:102B500000710020B0EB516F04D1FFE701208DF828
:102B60000F009EE010E043F60000C4F2020000688F
:102B700000F002010020B0EB510F04D1FFE701206B
:102B80008DF80F008DE0FFE7FFE743F60801C4F280
:102B90000201086820F00300029A5268104308609E
:102BA000FEF74EFB0090FFE743F60800C4F2020078
:102BB000006800F00C0002994968B0EB810F0ED05C
:102BC000FFE7FEF73DFB0099401A41F28931884248
:102BD00004D3FFE703208DF80F0062E0E4E7FFE78E
:102BE000019843F60041C4F20201096801F00701AF
:102BF000884212D2FFE7019943F60040C4F2020076
:102C00000170006800F007000199884204D0FFE7D6
:102C100001208DF80F0044E0FFE70298007840079C
:102C200000280CD5FFE743F60801C4F2020108684A
:102C300020F4E050029AD26810430860FFE702983F
:102C40000078000700280DD5FFE743F60801C4F21D
:102C50000201086820F46040029A126940EAC2004A
:102C60000860FFE700F076F843F60801C4F20201BD
:102C70000968C9B20A094BF6DE21C0F60001895C79
:102C8000C84040F22001C2F20001086040F2F400A6
:102C9000C2F200000068FEF79FFC00208DF80F00D4
:102CA000FFE79DF80F0004B080BD000082B00190E6
:102CB000009101990F20086043F60800C4F2020059
:102CC000016801F00301019A5160016801F0F0010F
:102CD000019A9160016801F4E051019AD1600068A5
:102CE00000F46040C0080199086143F60040C4F256
:102CF0000200006800F007000099086002B0704709
:102D000040F22000C2F200000068704780B5FFF773
:102D1000F7FF43F60801C4F202010968C1F38222F9
:102D20004BF6EE21C0F60001895CC84080BD000072
:102D300080B5FFF7E5FF43F60801C4F20201096818
:102D400089B24A0B4BF6EE21C0F60001895CC840FF
:102D500080BD000080B586B00020059004900390EF
:102D6000029043F60800C4F20200006800F00C0074
:102D70000146019140B1FFE7019804280AD0FFE71E
:102D8000019808280CD04FE042F20040C0F2F40055
:102D900002904FE041F20020C0F27A00029049E038
:102DA00043F60400C4F20200016801F03F010591FE
:102DB00000684002002813D5FFE743F60400C4F280
:102DC00002000068C0F3881041F20021C0F27A01CD
:102DD000A0FB0101059A0023FDF746FA049012E0DA
:102DE00043F60400C4F202000068C0F3881042F207
:102DF0000041C0F2F401A0FB0101059A0023FDF798
:102E000033FA0490FFE743F60400C4F202000068BE
:102E100000F44031022000EBD13003900498039974
:102E2000B0FBF1F0029005E042F20040C0F2F40085
:102E30000290FFE7029806B080BD000080B586B022
:102E40000490049820B9FFE701208DF8170050E3A3
:102E500004980078C007002800F0A580FFE743F63B
:102E60000800C4F20200006800F00C00042813D02F
:102E7000FFE743F60800C4F20200006800F00C000F
:102E800008281ED1FFE743F60400C4F202000068E0
:102E90004002002815D5FFE743F60000C4F2020007
:102EA000006800F400310020B0EB514F08D0FFE77C
:102EB0000498406820B9FFE701208DF8170018E357
:102EC00070E0FFE704984068B0F5803F09D1FFE764
:102ED00043F60001C4F20201086840F48030086043
:102EE00020E004984068B0F5A02F0DD1FFE743F62D
:102EF0000001C4F20201086840F4802008600868FC
:102F000040F4803008600CE043F60001C4F2020196
:102F1000086820F480300860086820F48020086089
:102F2000FFE7FFE7FFE704984068E8B1FFE7FEF737
:102F300087F90390FFE743F60000C4F2020000683F
:102F400000F400310020B0EB514F0CD1FFE7FEF749
:102F500077F90399401A652804D3FFE703208DF819
:102F60001700C6E2E7E71CE0FEF76AF90390FFE707
:102F700043F60000C4F20200006800F400310020B3
:102F8000B0EB514F0CD0FFE7FEF75AF90399401A06
:102F9000652804D3FFE703208DF81700A9E2E7E7CF
:102FA000FFE7FFE7FFE7049800788007002840F17B
:102FB0009680FFE743F60800C4F20200006810F0B4
:102FC0000C0F13D0FFE743F60800C4F202000068BC
:102FD00000F00C0008282CD1FFE743F60400C4F2EF
:102FE000020000684002002823D4FFE743F60000F7
:102FF000C4F20200006800F002010020B0EB510FA3
:1030000009D0FFE70498C068012804D0FFE7012039
:103010008DF817006DE243F60001C4F20201086862
:1030200020F0F800049A126940EAC2000860FFE745
:1030300054E00498C06870B3FFE70021C4F2472150
:1030400001200860FEF7FCF80390FFE743F600005C
:10305000C4F20200006800F002010020B0EB510F42
:103060000CD1FFE7FEF7ECF80399401A032804D3CC
:10307000FFE703208DF817003BE2E7E743F6000186
:10308000C4F20201086820F0F800049A126940EACC
:10309000C200086021E00021C4F24721002008603E
:1030A000FEF7CEF80390FFE743F60000C4F20200FB
:1030B000006800F002010020B0EB510F0CD0FFE7D8
:1030C000FEF7BEF80399401A032804D3FFE7032054
:1030D0008DF817000DE2E7E7FFE7FFE7FFE7049849
:1030E0000078000700284BD5FFE70498406918B323
:1030F000FFE740F68061C4F2472101200860FEF737
:103100009FF80390FFE743F67400C4F202000068E2
:1031100000F002010020B0EB510F0CD1FFE7FEF7E9
:103120008FF80399401A032804D3FFE703208DF892
:103130001700DEE1E7E722E040F68061C4F24721B4
:1031400000200860FEF77CF80390FFE743F6740068
:10315000C4F20200006800F002010020B0EB510F41
:103160000CD0FFE7FEF76CF80399401A032804D34C
:10317000FFE703208DF81700BBE1E7E7FFE7FFE774
:10318000049800784007002840F1CE80FFE7002037
:103190008DF8070043F64000C4F202000068C0004A
:1031A000002815D4FFE7FFE70020009043F6400019
:1031B000C4F20200016841F080510160006800F033
:1031C000805000900098FFE701208DF80700FFE78E
:1031D00047F20000C4F200000068C005002822D4B5
:1031E000FFE747F20001C4F20001086840F4807074
:1031F0000860FEF725F80390FFE747F20000C4F2ED
:1032000000000068C00500280CD4FFE7FEF718F89E
:103210000399401A032804D3FFE703208DF8170011
:1032200067E1EAE7FFE7FFE704988068012809D132
:10323000FFE743F67001C4F20201086840F00100A4
:1032400008601FE00498806805280DD1FFE743F669
:103250007001C4F20201086840F0040008600868C8
:1032600040F0010008600CE043F67001C4F2020176
:10327000086820F001000860086820F00400086079
:10328000FFE7FFE7FFE704988068F8B1FFE7FDF785
:10329000D7FF0390FFE743F67000C4F20200006816
:1032A00000F002010020B0EB510F0ED1FFE7FDF757
:1032B000C7FF0399401A41F28931884204D3FFE7DE
:1032C00003208DF8170014E1E5E71EE0FDF7B8FFD5
:1032D0000390FFE743F67000C4F20200006800F0BC
:1032E00002010020B0EB510F0ED0FFE7FDF7A8FF61
:1032F0000399401A41F28931884204D3FFE7032041
:103300008DF81700F5E0E5E7FFE79DF807000128D5
:1033100009D1FFE743F64001C4F20201086820F03A
:1033200080500860FFE7FFE704988069002800F0FC
:10333000DC80FFE743F60800C4F20200006800F0FA
:103340000C00082800F08580FFE7049880690228B7
:103350005CD1FFE76021C4F2472100200860FDF73F
:103360006FFF0390FFE743F60000C4F2020000681D
:1033700000F000710020B0EB516F0CD0FFE7FDF7BB
:103380005FFF0399401A032804D3FFE703208DF859
:103390001700AEE0E7E70499C869D1F820C04B6A8E
:1033A0008A6A40EA0C0040EA8310D2034FF6FF73AA
:1033B0009A43A2F580321043C96A40EA016043F69D
:1033C0000401C4F2020108606021C4F24721012017
:1033D0000860FDF735FF0390FFE743F60000C4F2F5
:1033E0000200006800F000710020B0EB516F0CD1BA
:1033F000FFE7FDF725FF0399401A032804D3FFE7F1
:1034000003208DF8170074E0E7E721E06021C4F2A3
:10341000472100200860FDF713FF0390FFE743F604
:103420000000C4F20200006800F000710020B0EB60
:10343000516F0CD0FFE7FDF703FF0399401A0328F3
:1034400004D3FFE703208DF8170052E0E7E7FFE71A
:103450004AE004988069012804D1FFE701208DF833
:10346000170046E043F60400C4F202000068029030
:1034700004988069012831D0FFE7029800F48000A9
:103480000499C969884229D1FFE7029800F03F00FA
:103490000499096A884221D1FFE7029847F6C07172
:1034A00008400499496AB0EB811F17D1FFE70298E1
:1034B00000F440300499896AC9034FF6FF729143C2
:1034C000A1F58031884209D1FFE7029800F07060D1
:1034D0000499C96AB0EB016F04D0FFE701208DF8B1
:1034E000170006E0FFE7FFE7FFE700208DF8170071
:1034F000FFE79DF8170006B080BD000080B584B0DE
:103500000290029820B9FFE701208DF80F0071E0CA
:103510000298406A60B9FFE702984068B0F5827F80
:1035200001D1FFE703E002990020C861FFE705E051
:1035300002990020086102994861FFE70299002082
:103540008862029890F8510040B9FFE70299002084
:1035500081F85000029800F051F8FFE7029902202C
:1035600081F8510002980168086820F04000086066
:10357000029A019211685068D2F808C0D36800F42A
:1035800082700CF4044C604403F400631844136923
:1035900003F002031844536903F0010318449369CC
:1035A00003F400731844D36903F038031844136A12
:1035B00003F080031843926A02F40052104308603B
:1035C000029A508B00F004001168526A02F0100257
:1035D0001044486002980168C86920F40060C8611E
:1035E000029900204865029A012182F851108DF855
:1035F0000F00FFE79DF80F0004B080BD80B596B0C6
:10360000159000201490139012901190109015981E
:10361000006843F20001C4F2010188425ED1FFE775
:10362000FFE700200F9043F64400C4F20200016857
:1036300041F480510160006800F480500F900F98B1
:10364000FFE7FFE700200E9043F63000C4F20200CF
:10365000016841F001010160006800F001000E9076
:103660000E98FFE7FFE700200D9043F63000C4F20C
:103670000200016841F002010160006800F00200F0
:103680000D900D98FFE740201090022005901190BA
:1036900000200690129003200790139005200890B8
:1036A00014900020C4F2020010A90991FDF7D4FB88
:1036B000DDF814C0069B079A089809994FF0280E68
:1036C000CDF840E0CDF844C012931392149040F22C
:1036D0000040C4F20200FDF7BFFB68E015980068E7
:1036E00043F60001C4F2000188425FD1FFE7FFE723
:1036F00000200C9043F64000C4F20200016841F43F
:1037000080410160006800F480400C900C98FFE755
:10371000FFE700200B9043F63000C4F2020001687E
:1037200041F004010160006800F004000B900B9868
:10373000FFE7FFE700200A9043F63000C4F20200E2
:10374000016841F002010160006800F002000A9087
:103750000A98FFE70C2010900220009011900020A2
:103760000190129003200290139005200390149072
:1037700040F60000C4F2020010A90491FDF76CFBB2
:10378000DDF800C0019B029A039804994FF4005E93
:10379000CDF840E0CDF844C012931392149040F25B
:1037A0000040C4F20200FDF757FBFFE7FFE716B049
:1037B00080BD000081B0009001B0704781B00090E2
:1037C00001B0704784B00290019100200090FFE7A3
:1037D000029890F83C00012804D1FFE702208DF800
:1037E0000F0044E00299012081F83C00FFE7FFE769
:1037F000009820F0FF000199C968084300900098E4
:1038000020F440700199896808430090009820F4E2
:1038100080600199496808430090009820F4006096
:103820000199096808430090009820F4805001999C
:10383000096908430090009820F4005001994969F3
:1038400008430090009820F480400199C96908431A
:1038500000900098029909684864FFE702990020E7
:1038600081F83C00FFE700208DF80F00FFE79DF88E
:103870000F0004B07047000085B003900291FFE78D
:10388000039890F83C00012804D1FFE702208DF84E
:1038900013007EE00399012081F83C00FFE7FFE779
:1038A0000399022081F83D00039800684068019068
:1038B0000398006880680090019820F070000190E3
:1038C00002980168019808430190019803990968DA
:1038D0004860039800680021C4F2010188423CD08E
:1038E000FFE703980068B0F1804F36D0FFE70398F8
:1038F000006840F20041C4F2000188422DD0FFE789
:103900000398006840F60001C4F20001884224D008
:10391000FFE70398006840F60041C4F200018842C6
:103920001BD0FFE70398006840F20041C4F2010198
:10393000884212D0FFE70398006844F20001C4F205
:103940000101884209D0FFE70398006841F60001B1
:10395000C4F2000188420ED1FFE7009820F08000F9
:1039600000900298416800980843009000980399DD
:1039700009688860FFE70399012081F83D00FFE7AF
:103980000399002081F83C00FFE700208DF8130028
:10399000FFE79DF8130005B07047000080B582B0C6
:1039A0000090009820B9FFE701208DF807003FE064
:1039B000009890F83D0040B9FFE70099002081F899
:1039C0003C00009800F038F8FFE70099022081F8E9
:1039D0003D00009951F8040B01F038FA00990120DC
:1039E00081F84600FFE70099012081F83E00009928
:1039F00081F83F00009981F84000009981F841006A
:103A0000FFE7FFE70099012081F84200009981F863
:103A10004300009981F84400009981F84500FFE7D0
:103A20000099012081F83D0000208DF80700FFE794
:103A30009DF8070002B080BD81B0009001B07047D2
:103A400083B00190019890F83D00012804D0FFE771
:103A500001208DF80B006AE00199022081F83D00F9
:103A600001980168C86840F00100C86001980068CA
:103A70000021C4F2010188423CD0FFE701980068B0
:103A8000B0F1804F36D0FFE70198006840F2004166
:103A9000C4F2000188422DD0FFE70198006840F68B
:103AA0000001C4F20001884224D0FFE701980068B9
:103AB00040F60041C4F2000188421BD0FFE70198A4
:103AC000006840F20041C4F20101884212D0FFE7D1
:103AD0000198006844F20001C4F20101884209D053
:103AE000FFE70198006841F60001C4F20001884236
:103AF00012D1FFE701980068806800F0070000908D
:103B00000098062807D0FFE701980168086840F090
:103B100001000860FFE706E001980168086840F0CE
:103B200001000860FFE700208DF80B00FFE79DF81B
:103B30000B0003B07047000081B0009001B07047E7
:103B400080B584B0039003980068C0680290039821
:103B50000068006901909DF804008007002824D5C2
:103B6000FFE79DF80800800700281DD5FFE70398B0
:103B700001686FF00200086103990120087703983B
:103B800000688069800720B1FFE70398FFF7D4FF42
:103B900006E0039800F06AF9039800F09FFAFFE747
:103BA000039900200877FFE7FFE79DF8040040072E
:103BB000002825D5FFE79DF80800400700281ED5FE
:103BC000FFE7039801686FF0040008610399022081
:103BD000087703980068806910F4407F04D0FFE7FD
:103BE0000398FFF7A9FF06E0039800F03FF9039858
:103BF00000F074FAFFE7039900200877FFE7FFE77A
:103C00009DF804000007002824D5FFE79DF8080070
:103C1000000700281DD5FFE7039801686FF0080032
:103C2000086103990420087703980068C069800739
:103C300020B1FFE70398FFF77FFF06E0039800F04D
:103C400015F9039800F04AFAFFE703990020087776
:103C5000FFE7FFE79DF80400C006002825D5FFE731
:103C60009DF80800C00600281ED5FFE703980168EC
:103C70006FF0100008610399082008770398006826
:103C8000C06910F4407F04D0FFE70398FFF754FFAA
:103C900006E0039800F0EAF8039800F01FFAFFE747
:103CA000039900200877FFE7FFE79DF80400C007AD
:103CB00078B1FFE79DF80800C00748B1FFE7039817
:103CC00001686FF001000861039800F00BFAFFE74C
:103CD000FFE79DF804000006002810D5FFE79DF8D7
:103CE00008000006002809D5FFE7039801686FF077
:103CF000800008610398FFF75DFDFFE7FFE79DF88F
:103D000004004006002810D5FFE79DF80800400693
:103D1000002809D5FFE7039801686FF040000861AB
:103D2000039800F0F1F9FFE7FFE79DF80400800633
:103D3000002810D5FFE79DF808008006002809D567
:103D4000FFE7039801686FF0200008610398FFF710
:103D500035FDFFE7FFE704B080BD000080B58EB001
:103D60000D9000200C900B900A90099008900D98EF
:103D700000680021C4F20101884249D1FFE7FFE752
:103D80000020079043F63000C4F20200016841F0C1
:103D900001010160006800F0010007900798FFE74B
:103DA000FFE70020069043F63000C4F202000168ED
:103DB00041F002010160006800F0020006900698E0
:103DC000FFE74FF4F0600890022001900990002076
:103DD00002900A900B90012003900C900020C4F2F6
:103DE000020008A90491FDF737F8019B029A039895
:103DF000049944F2020CCDF820C009930A920B9268
:103E00000C9040F20040C4F20200FDF725F82AE0D1
:103E10000D98006840F20041C4F20001884221D1AF
:103E2000FFE7FFE70020059043F63000C4F20200F0
:103E3000016841F004010160006800F00400059091
:103E40000598FFE7402008900220099000210A9180
:103E50000B910C9040F60000C4F2020008A9FCF798
:103E6000FBFFFFE7FFE70EB080BD000081B00090D0
:103E700001B0704780B586B0049003910292002093
:103E80008DF80700FFE7049890F83C00012804D162
:103E9000FFE702208DF8170089E00499012081F8DE
:103EA0003C00FFE7FFE7029800900C2800F27080CA
:103EB0000099DFE801F0076D6D6D206D6D6D3A6D55
:103EC0006D6D530004980068039901F097F8049809
:103ED0000168886940F00800886104980168886971
:103EE00020F00400886103980269049801688869D9
:103EF0001043886150E004980068039901F0F4F8D9
:103F000004980168886940F4006088610498016839
:103F1000886920F4806088610398026904980168C8
:103F2000886940EA0220886136E0049800680399B5
:103F300001F054F904980168C86940F00800C861AC
:103F400004980168C86920F00400C86103980269F8
:103F500004980168C8691043C8611DE004980068AE
:103F6000039901F0B5F904980168C86940F400604C
:103F7000C86104980168C86920F48060C86103982A
:103F8000026904980168C86940EA0220C86103E038
:103F900001208DF80700FFE7FFE70499002081F872
:103FA0003C00FFE79DF807008DF81700FFE79DF83C
:103FB000170006B080BD000080B582B00090009868
:103FC00020B9FFE701208DF807003FE0009890F846
:103FD0003D0040B9FFE70099002081F83C000098BF
:103FE00000F038F8FFE70099022081F83D000099C1
:103FF00051F8040B00F02AFF0099012081F84600D7
:10400000FFE70099012081F83E00009981F83F0008
:10401000009981F84000009981F84100FFE7FFE72F
:104020000099012081F84200009981F8430000992D
:1040300081F84400009981F84500FFE700990120CC
:1040400081F83D0000208DF80700FFE79DF807008C
:1040500002B080BD80B584B0039003980068002151
:10406000C4F2010188421BD1FFE7FFE70020029064
:1040700043F64400C4F20200016841F0010101600E
:10408000006800F0010002900298FFE71A200090FB
:104090000F210022FDF744FB0098FDF737FB1BE0E2
:1040A0000398006840F20041C4F20001884212D136
:1040B000FFE7FFE70020019043F64000C4F2020052
:1040C000016841F002010160006800F00200019007
:1040D0000198FFE7FFE7FFE704B080BD81B00090E3
:1040E00001B0704780B582B001900198006844F635
:1040F0000001C4F20101884203D1FFE7FDF742FA53
:10410000FFE702B080BD000081B0009001B07047B1
:1041100080B582B00090009820B9FFE701208DF8AB
:10412000070040E00098806908B1FFE700E0FFE782
:10413000009890F8410040B9FFE70099002081F80D
:104140004000009800F034F8FFE70099242081F83F
:10415000410000980168C86820F40050C8600098C9
:1041600001F008F900980168086920F4904008619E
:1041700000980168486920F02A00486100980168A9
:10418000C86840F40050C860009900204864009A54
:10419000202182F84110009A82F842100099486369
:1041A0008DF80700FFE79DF8070002B080BD000012
:1041B00080B588B007900020069005900490039089
:1041C00002900798006841F20001C4F201018842A0
:1041D00034D1FFE7FFE70020019043F64400C4F22A
:1041E0000200016841F010010160006800F0100059
:1041F00001900198FFE7FFE70020009043F63000B0
:10420000C4F20200016841F002010160006800F0A0
:10421000020000900098FFE7C02002900220039067
:1042200000200490032005900720069040F20040F3
:10423000C4F2020002A9FCF70FFEFFE708B080BD40
:10424000FFE7FEE783B0029001918DF80320002084
:104250008DF802008DF80200FFE79DF802009DF83E
:104260000310884229DAFFE70298000F092809D8CD
:10427000FFE70298000F303001999DF8022001F805
:10428000120009E00299372000EB117001999DF8A6
:10429000022001F81200FFE7029800010290019845
:1042A0009DF8021000EB410100204870FFE79DF8E7
:1042B000020001308DF80200CFE703B07047000024
:1042C00080B586B000220092059204920392029279
:1042D00041F66800C2F20000019042F20001C4F20F
:1042E000010101604FF48031416082600261027619
:1042F00080F82020C2620121C0F600718162C26094
:104300000121C16180F830204161FCF779FB18B1CF
:10431000FFE7FCF737FAFFE7002002900121039145
:10432000049041F66800C2F2000002A9FCF75CFAB2
:1043300018B1FFE7FCF726FAFFE706B080BD0000E2
:1043400080B586B0002200920592049203920292F8
:1043500041F6B000C2F20000019042F20011C4F236
:10436000010101604FF48031416082600261027698
:1043700080F82020C2620121C0F600718162C26013
:104380000121C16180F830204161FCF739FB18B18F
:10439000FFE7FCF7F7F9FFE7052002900120039003
:1043A0000020049041F6B000C2F2000002A9FCF720
:1043B0001BFA18B1FFE7FCF7E5F9FFE706B080BD8F
:1043C00080B582B041F6F800C2F20000009046F2DB
:1043D0000041C4F2000101601021416000210191FF
:1043E0008160C16001614161017641768176C1766B
:1043F00001774177FCF7D4FB18B1FFE7FCF7C2F96E
:10440000FFE702B080BD000080B544F62D50C0F635
:1044100000004BF6F822C0F60002002104F0A6FDD1
:1044200041F28851C2F20001086080BD80B58CB0B5
:1044300000200B900A90099008900790FFE7002059
:10444000069043F63000C4F20200016841F080019A
:104450000160006800F0800006900698FFE7FFE723
:104460000020059043F63000C4F20200016841F0DC
:1044700004010160006800F0040005900598FFE762
:10448000FFE70020049043F63000C4F20200016808
:1044900041F001010160006800F0010004900498FF
:1044A000FFE7FFE70020039043F63000C4F202006C
:1044B000016841F002010160006800F00200039011
:1044C0000398FFE740F60000C4F2020002901221B8
:1044D000009100220192FCF79BFE009A019902983C
:1044E00007920122089209910A9107A9FCF7B4FCEE
:1044F0000CB080BD80B582B041F62010C2F2000041
:10450000019045F60001C4F20001016048F2A0618B
:10451000C0F20101416000218160C1604FF480421E
:10452000026141618161C1610162FCF78FFE18B1D6
:10453000FFE7FCF727F9FFE702B080BD80B582B046
:1045400041F65860C2F20000009043F20001C4F24C
:10455000010101604FF4827141600021019181608D
:10456000C160016141614FF400728261C161016209
:10457000416281620A21C162FEF7C0FF18B1FFE704
:10458000FCF700F9FFE702B080BD000080B582B003
:1045900041F6B060C2F20000009043F60001C4F2A0
:1045A000000101604FF4827141600021019181603E
:1045B000C160016141614FF400728261C1610162B9
:1045C000416281620A21C162FEF798FF18B1FFE7DC
:1045D000FCF7D8F8FFE702B080BD000080B594B0CA
:1045E0000021019113911291119110910F910E914F
:1045F0000D910C910B910A910991089107910691E7
:1046000005910491039141F60870C2F200000290F6
:104610000022C4F201020260416081604FF6FF7225
:10462000C260016141618161FFF7C6FC18B1FFE71B
:10463000FCF7A8F8FFE700201290139041F60870ED
:10464000C2F2000012A9FFF717F918B1FFE7FCF753
:1046500099F8FFE760200B9000220C920D920E92C9
:104660000F921092119241F60870C2F200000BA94D
:10467000FFF700FC18B1FFE7FCF784F8FFE741F60D
:104680000870C2F200000BA90422FFF7F3FB18B177
:10469000FFE7FCF777F8FFE741F60870C2F2000089
:1046A0000BA90822FFF7E6FB18B1FFE7FCF76AF851
:1046B000FFE70020039004900590069007904FF4C8
:1046C000005108910A9041F60870C2F2000003A957
:1046D000FFF778F818B1FFE7FCF754F8FFE741F669
:1046E0000870C2F20000FFF739FB14B080BD000073
:1046F00080B58AB000210091099108910791069137
:104700000591049103910291019141F69870C2F2D2
:10471000000040F20042C4F2000202604160816089
:104720004FF6FF72C26001618161FFF745FC18B16D
:10473000FFE7FCF727F8FFE700200890099041F613
:104740009870C2F2000008A9FFF796F818B1FFE7C9
:10475000FCF718F8FFE76020019000220292039214
:10476000059241F69870C2F2000001A9FFF782FBA2
:1047700018B1FFE7FCF706F8FFE741F69870C2F2C0
:104780000000FFF7EBFA0AB080BD000080B582B0F0
:1047900041F6E070C2F20000019041F20001C4F263
:1047A000010101604FF4E131416000218160C1608D
:1047B00001610C2242618161C161FFF7A9FC18B15E
:1047C000FFE7FBF7DFFFFFE702B080BD80B541F2F6
:1047D0008C50C2F2000040F20401C2F2000100223B
:1047E00001F056FF18B1FFE7FBF7CCFFFFE741F2FE
:1047F0008C50C2F2000040F22401C2F2000102F02B
:104800004BFC18B1FFE7FBF7BDFFFFE741F28C500F
:10481000C2F2000040F2C001C2F2000101F0AAF9A8
:1048200018B1FFE7FBF7AEFFFFE741F28C50C2F291
:10483000000002F0BBFD18B1FFE7FBF7A3FFFFE7A5
:1048400080BD0000FFE7FEE7FFE7FEE788B00790C6
:1048500006910592079800F0070004900498C0F1B3
:104860000700052803D3FFE70420019004E0049823
:10487000C0F107000190FFE701980390049804300D
:10488000062803D8FFE70020009003E004980338CF
:104890000090FFE70098029006980399012202FA1F
:1048A00001F101390840029B984005999A40013A6C
:1048B0001140084308B0704780B541F67410C2F249
:1048C0000000FDF739FA80BD80B586B005900491EF
:1048D000059800680390039802900398006C01907B
:1048E0000298049900EB4110D0F8080B0090019851
:1048F00043F20B01C4F6547188420FD3FFE79DF8D1
:1049000001000006002809D5FFE70298049900EB92
:1049100041114FF40040C1F8080BFFE70598FEF77E
:1049200029F8019843F20B01C4F6547188420DD363
:10493000FFE705988079012808D1FFE70599086805
:1049400001F29C42012103F049FBFFE7002006B081
:1049500080BD000080B588B0079006910798006878
:104960000490049803900498006C029003980699B0
:1049700000EB4110D0F8080B0190079880790128CE
:1049800040F08180FFE79DF804000007002818D55B
:10499000FFE7029843F20B01C4F6547188420FD32B
:1049A000FFE79DF805000006002809D5FFE70398FA
:1049B000069900EB41114FF40040C1F8080BFFE7E6
:1049C00060E09DF804008006002808D5FFE7039802
:1049D000069900EB41112020C1F8080B51E09DF829
:1049E000040010F0280F4AD1FFE7029843F20B01B0
:1049F000C4F6547188420FD3FFE79DF80500000606
:104A0000002809D5FFE70398069900EB41114FF400
:104A10000040C1F8080B31E00798069901EBC1018D
:104A200000EB810000F5157005900598006A039968
:104A3000069A01EB4211D1F8101B6FF3DF41401AC7
:104A400005994861069898B9FFE70598006940B94B
:104A5000FFE70799086801F29C42012103F0BEFAC2
:104A600005E00599C8684A691044C860FFE7FFE798
:104A700007989DF81810FCF7F3FEFFE700E0FFE74A
:104A8000FFE7FFE747E0029843F20A11C4F65471CA
:104A9000884224D1FFE79DF805000006002809D5CB
:104AA000FFE70398069900EB41114FF40040C1F86D
:104AB000080B13E09DF804008006002808D5FFE7E6
:104AC0000398069900EB41112020C1F8080BFFE77D
:104AD00007989DF81810FCF7C3FEFFE71AE0069848
:104AE00090B9FFE70798069901EBC10100EB81003F
:104AF000D0F8640240B9FFE70799086801F29C42C8
:104B0000002103F06BFAFFE707989DF81810FCF7F7
:104B1000A7FEFFE7FFE7002008B080BD80B58CB09E
:104B20000A9009910A9800680890089807900A98D6
:104B3000099901EBC10100EB810014300690069841
:104B400001694069884204D9FFE701208DF82F00F0
:104B500079E0069908694969401A0590059806990F
:104B60008968884204D9FFE7069880680590FFE7C6
:104B70000598033080080490FFE70798099900EB37
:104B80004110D0F8180981B2049A00209142029095
:104B90000FD3FFE706980269416900209142029015
:104BA00007D2FFE706980069002818BF012002908D
:104BB000FFE70298C00770B3FFE7069908694969E3
:104BC000401A0590059806998968884204D9FFE73C
:104BD000069880680590FFE70598033080080490E8
:104BE00008980699C9689DF82420BDF81430DDF8AE
:104BF00028C09CF806C0EE46CEF800C004F064F869
:104C0000059A0699C8681044C860059A06994869CB
:104C100010444861B1E706990869496988420ED88D
:104C2000FFE7099800F00F01012088400390039AE4
:104C30000799D1F834089043C1F83408FFE7002001
:104C40008DF82F00FFE79DF82F000CB080BD00000D
:104C5000EFF30980BFF36F8F154B1A681EF0100F2A
:104C600008BF20ED108A20E9F04F10602DE90900FF
:104C70004FF0500080F31188BFF34F8FBFF36F8F59
:104C800005F0F8FD4FF0000080F31188BDE8090041
:104C900019680868B0E8F04F1EF0100F08BFB0ECBC
:104CA000108A80F30988BFF36F8F704700BF00BF81
:104CB0001C21002000000000000000000000000097
:104CC000074B19680868B0E8F04F80F30988BFF314
:104CD0006F8F4FF0000080F31188704700BF00BF56
:104CE0001C21002080B56FF00400002104F072F850
:104CF00080BD000084B00390039800900098007875
:104D0000ADF8080000980130009000980078ADF8E8
:104D10000600BDF80610BDF8080040EA0120ADF815
:104D20000A00BDF80A0004B07047000080B582B0E8
:104D30000190FFF74BFDFFE7012004F0AFF8FBE720
:104D400080B54EF21000CEF20000006806F06EFB57
:104D5000012803D0FFE705F09DFEFFE780BD0000BE
:104D600080B594B008A83021FBF743FB00200790E2
:104D70000690059004900390FFE70020029043F610
:104D80004000C4F20200016841F0805101600068F7
:104D900000F0805002900298FFE7FFE700200190AA
:104DA00047F20000C4F20000016841F48041016054
:104DB000006800F4804001900198FFE7012008900E
:104DC0004FF48030099002200E904FF480010F9133
:104DD00004211091A821119112900720139008A886
:104DE000FEF72CF818B1FFE7FBF7CCFCFFE70F202C
:104DF000039002200490002005904FF4A0500690EC
:104E00004FF48050079003A80521FDF71DFE18B14F
:104E1000FFE7FBF7B7FCFFE714B080BD4EF6885103
:104E2000CEF20001086840F470000860704700008E
:104E300080B541F60870C2F20000FEF781FE41F62F
:104E40005070C2F20000FEF77BFE80BD83B002907E
:104E5000019102980068009002980021C4F20101BB
:104E6000884225D0FFE70298B0F1804F20D0FFE7BD
:104E7000029840F20041C4F20001884218D0FFE7D6
:104E8000029840F60001C4F20001884210D0FFE70A
:104E9000029840F60041C4F20001884208D0FFE7C2
:104EA000029840F20041C4F2010188420AD1FFE7B2
:104EB000009820F070000090019841680098084325
:104EC0000090FFE702980021C4F20101884255D00A
:104ED000FFE70298B0F1804F50D0FFE7029840F210
:104EE0000041C4F20001884248D0FFE7029840F632
:104EF0000001C4F20001884240D0FFE7029840F66A
:104F00000041C4F20001884238D0FFE7029840F225
:104F10000041C4F20101884230D0FFE7029844F218
:104F20000001C4F20101884228D0FFE7029844F250
:104F30000041C4F20101884220D0FFE7029844F604
:104F40000001C4F20101884218D0FFE7029841F63F
:104F50000001C4F20001884210D0FFE7029841F638
:104F60000041C4F20001884208D0FFE7029842F2F3
:104F70000001C4F2000188420AD1FFE7009820F442
:104F8000407000900198C168009808430090FFE7C6
:104F9000009820F08000019949690843009000982A
:104FA00002990860019880680299C86201980068B7
:104FB0000299886202980021C4F20101884208D057
:104FC000FFE7029840F20041C4F20101884205D196
:104FD000FFE70198006902990863FFE70299012041
:104FE000486102980069C00730B1FFE7029908697B
:104FF00020F001000861FFE703B0704785B004901E
:1050000003910498006A01900499086A20F0010055
:1050100008620498406800900498806902900298A1
:1050200020F070000290029820F003000290039894
:105030000168029808430290019820F00200019054
:105040000398816801980843019004980021C4F2F4
:105050000101884208D0FFE7049840F20041C4F201
:10506000010188420ED1FFE7019820F0080001906D
:105070000398C168019808430190019820F004004A
:105080000190FFE704980021C4F20101884208D092
:10509000FFE7049840F20041C4F20101884213D1B5
:1050A000FFE7009820F480700090009820F40070D2
:1050B0000090039841690098084300900398816923
:1050C000009808430090FFE7009804994860029810
:1050D0000499886103984068049948630198049989
:1050E000086205B07047000085B0049003910498F1
:1050F000006A01900499086A20F010000862049880
:1051000040680090049880690290029820F4E04082
:105110000290029820F4407002900398016802986F
:1051200040EA01200290019820F0200001900398AD
:105130008168019840EA0110019004980021C4F2AE
:105140000101884208D0FFE7049840F20041C4F210
:10515000010188420FD1FFE7019820F08000019003
:105160000398C168019840EA01100190019820F06D
:1051700040000190FFE704980021C4F20101884239
:1051800008D0FFE7049840F20041C4F201018842D0
:1051900015D1FFE7009820F480600090009820F47B
:1051A0000060009003984169009840EA81000090F7
:1051B00003988169009840EA81000090FFE7009819
:1051C000049948600298049988610398406804999A
:1051D000886301980499086205B0704785B004900F
:1051E00003910498006A01900499086A20F4807081
:1051F00008620498406800900498C0690290029880
:1052000020F070000290029820F0030002900398B2
:105210000168029808430290019820F40070019000
:1052200003988168019840EA0120019004980021C8
:10523000C4F20101884208D0FFE7049840F200411F
:10524000C4F2010188420FD1FFE7019820F4006009
:1052500001900398C168019840EA012001900198EB
:1052600020F480600190FFE704980021C4F201015E
:10527000884208D0FFE7049840F20041C4F20101DF
:10528000884215D1FFE7009820F4805000900098E4
:1052900020F40050009003984169009840EA011002
:1052A000009003988169009840EA01100090FFE7A0
:1052B00000980499486002980499C861039840686E
:1052C0000499C86301980499086205B0704700000A
:1052D00085B0049003910498006A01900499086ACB
:1052E00020F4805008620498406800900498C069D7
:1052F0000290029820F4E0400290029820F440705E
:10530000029003980168029840EA012002900198F7
:1053100020F40050019003988168019840EA013020
:10532000019004980021C4F20101884208D0FFE7EF
:10533000049840F20041C4F2010188420BD1FFE71A
:10534000009820F48040009003984169009840EA5A
:1053500081100090FFE70098049948600298049932
:10536000C861039840680499086401980499086228
:1053700005B0704780B586B0059005980068006953
:1053800020F44050059A1168D268104308610599CD
:1053900088680B694A69C969184310430843049037
:1053A00005980068C06849F20C6188430499084375
:1053B00005990968C86005980068406920F4407044
:1053C000059A11689269104348610598006841F296
:1053D0000001C4F20101884209D0FFE70598006886
:1053E00041F20041C4F20101884204D1FFE7FDF718
:1053F0009FFC039003E0FDF789FC0390FFE705980D
:10540000C069B0F5004F29D1FFE703981921A0FB2F
:105410000101059A1368029353685A00DB0FFAF7EB
:1054200023FF0299864648F21F53C5F2EB13AEFBE9
:105430000320420910014FF0640C02FB1CEC3222E5
:1054400002EBCC02A2FB0332F82303EA521300EB77
:105450004300C2F342121044886026E003981921E9
:10546000A0FB0101059A1368019353689A009B0FF2
:10547000FAF7FAFE0199844648F21F52C5F2EB1280
:10548000ACFB02304309642003FB10CC322000EB5C
:105490000C10A0FB0202F02000EA521000EB0310F7
:1054A000C2F3431210448860FFE706B080BD0000DD
:1054B00080B586B004908DF80F100498D0F8C8021B
:1054C00001900498D0F8D41200EB8100D0F8C0020B
:1054D00020B9FFE703208DF817005FE00498D0F8AB
:1054E000D41200EB8100D0F8C002029004989DF81D
:1054F0000F1001F00F0101EB810100EB81008069C9
:1055000040B3FFE704989DF80F1001F00F0101EB85
:10551000810200EB82008269019801EBC10100EB7E
:105520008100C169B2FBF1F000FB112090B9FFE7E7
:1055300004989DF80F1001F00F0101EB810100EBC1
:1055400081000023836104989DF80F101A4601F032
:105550004FFD1FE002990020C1F814020498D0F812
:10556000D41200EB8100D0F8C402006988B1FFE7D3
:105570000498D0F8D41200EB8100D0F8C40203697B
:105580000299D1F8080201F504719DF80F2098479F
:10559000FFE7FFE700208DF81700FFE79DF81700F1
:1055A00006B080BD80B584B002908DF807100298D7
:1055B000D0F8D41200EB8100D0F8C002009002981D
:1055C000D0F8D41200EB8100D0F8C00220B9FFE778
:1055D00003208DF80F0019E002989DF8071001F0E4
:1055E00091FA0099C1F80C020298D0F8D41200EB9D
:1055F0008100D0F8C402C2680099D1F8040201F514
:105600000371904700208DF80F00FFE79DF80F0011
:1056100004B080BD80B586B005908DF81310059854
:1056200040F20101C2F200010091097801F084F812
:1056300000990598097801F00F0101EB810100EB59
:105640008101002003908884059840F20201C2F293
:1056500000010191097801F06FF8019A039805990A
:10566000127802F00F0202EB820201EB8201A1F834
:105670006401059840F20001C2F20001029109782C
:1056800001F05AF8029A03980599137803F00F0372
:1056900003EB830301EB830188840599127802F000
:1056A0000F0202EB820201EB8201C8840598D0F858
:1056B000D41200EB8100D0F8C002F0B1FFE70598EA
:1056C000D0F8D41200EB8100D0F8C40240688047C3
:1056D0000598D0F8D41200EB8100D0F8C00202F097
:1056E00023F90598D0F8D41200EB81010020C1F80D
:1056F000C0020599C1F8BC02FFE7002006B080BDDA
:1057000080B584B002900298D0F8D41200EB8100EA
:10571000D0F8C0020190019820B9FFE703208DF86E
:105720000F0025E00298D0F8D41200EB8100D0F8E9
:10573000C402C8B1FFE7019890F80002FF2813D017
:10574000FFE70298D0F8D41200EB8100D0F8C40231
:105750008368019991F8000291F801229847019914
:10576000FF2081F80002FFE700208DF80F00FFE71F
:105770009DF80F0004B080BD81B0009000990A2010
:10578000088040F2A000C2F2000001B070470000A3
:1057900080B586B0059040F25C00C2F20000019036
:1057A000822100F051FE014601980491012100F090
:1057B0004BFE014601980391812100F045FE0290C5
:1057C000049820B1FFE7049910208871FFE703983F
:1057D00020B1FFE7039940208880FFE7029820B1BD
:1057E000FFE7029940208880FFE705994320088061
:1057F00040F25C00C2F2000006B080BD80B586B009
:10580000059040F25C00C2F200000190822100F09D
:105810001BFE014601980491012100F015FE01468E
:1058200001980391812100F00FFE0290049820B1AD
:10583000FFE7049910208871FFE7039828B1FFE77C
:1058400003994FF400708880FFE7029828B1FFE7C2
:1058500002994FF400708880FFE705994320088083
:1058600040F25C00C2F2000006B080BD80B586B098
:10587000059040F25C00C2F200000190822100F02D
:10588000E3FD014601980491012100F0DDFD014690
:1058900001980391812100F0D7FD0290049820B176
:1058A000FFE7049910208871FFE7039820B1FFE714
:1058B000039940208880FFE7029820B1FFE7029912
:1058C00040208880FFE705994320088040F25C0073
:1058D000C2F2000006B080BD80B590B00E908DF889
:1058E00037104FF4077002F023F80C900C9860B951
:1058F000FFE70E98D0F8D41200EB81010020C1F828
:10590000C00202208DF83F00F0E00C984FF40771C0
:10591000FAF76FFD0C980E99D1F8D42201EB8201B1
:10592000C1F8C0020E99D1F8D40201EB8000D0F882
:10593000C002C1F8BC020E98007C002840D1FFE7ED
:105940000E9840F20101C2F200010791097802228B
:1059500008924FF40073099301F0C0F90799089A6F
:10596000099B0E98097801F00F0101EB810100EB12
:10597000810101200B9088840E9840F20201C2F24E
:1059800000010A91097801F0A9F90A9A0B980E9979
:10599000127802F00F0202EB820201EB8201A1F801
:1059A00064010E9840F20001C2F20001097801F092
:1059B0000F0101EB810100EB81011020C8843EE062
:1059C0000E9840F20101C2F2000102910978022210
:1059D00003924023049301F081F90299039A049BF6
:1059E0000E98097801F00F0101EB810100EB8101B4
:1059F0000120069088840E9840F20201C2F2000154
:105A00000591097801F06AF9059A06980E991278BD
:105A100002F00F0202EB820201EB8201A1F86401A5
:105A20000E9840F20001C2F20001097801F00F0166
:105A300001EB810100EB81011020C884FFE70E9883
:105A400040F20001C2F2000100910978032208230C
:105A500001F044F900990E98097801F00F0101EB6B
:105A6000810100EB8101012088840C9900200190C4
:105A7000C1F804020E98D0F8D41200EB8100D0F8DF
:105A8000C4020068804701980C99C1F814020C996F
:105A9000C1F818020C98D0F8040220B9FFE70220E0
:105AA0008DF83F0022E00E98007C70B9FFE70E9859
:105AB00040F20201C2F2000109780C9AD2F80422E5
:105AC0004FF4007301F030F90CE00E9840F202013F
:105AD000C2F2000109780C9AD2F80422402301F0A6
